:100000000CC100000CC2000035C200005EC200003E
:1000100087C20000B0C20000D9C2000002C30000C5
:100020002BC300002BC1000029C1000027C1000024
:1000300025C100000C94540921C100001FC100001B
:100040001DC100001BC1000019C1000017C1000044
:1000500015C1000013C1000011C1000038C3000029
:100060000DC10000B9C50000EDC5000007C10000CA
:1000700005C1000003C1000001C10000FFC0000075
:10008000FDC00000FBC00000F9C00000F7C0000088
:100090002FC6000063C60000F1C00000EFC00000E2
:1000A000EDC00000EBC00000E9C00000E7C00000A8
:1000B000E5C00000E3C00000E1C00000DFC00000B8
:1000C000DDC00000DBC000000C94D7099DC6000015
:1000D000D1C60000D3C0000023C7000057C70000EE
:1000E000CDC000002D0430041F042304290467043C
:1000F000340438043E04420446044C0450045404BE
:1001000067045A045E04620400000A0B02090C0D25
:100110000E080703040100000000000000000000BA
:1001200000000000000000000000000000000000CF
:10013000000000001211100000000000000000008C
:1001400000000000000000000000000000000102AC
:1001500010202008081020401020408002010201D9
:100160000804020101020408102040808040201091
:1001700008040201800402018040201008040201EA
:100180000804020101020408102040800102040852
:10019000102040800505050507050808080802022B
:1001A00002020A0A08080404040401010101010111
:1001B00001010303030303030303040707070C0CF4
:1001C0000C0C0C0C0C0C02020202060606060606BB
:1001D00006060B0B0B0B0B0B0B0B00002200250074
:1001E00028002B002E003100340002010000050120
:1001F00008010B0100002100240027002A002D0027
:100200003000330001010000040107010A0102006F
:100210004B06D7066307EF075B0811241FBECFEF1D
:10022000D1E2DEBFCDBF00E00CBF12E0A0E0B2E043
:10023000E6EEF7E100E00BBF02C007900D92A43498
:10024000B107D9F724E0A4E4B2E001C01D92A03EBA
:10025000B207E1F711E0CDE0D1E000E006C0219760
:100260000109802FFE010E94E90BC830D10780E010
:100270000807A9F70E943E0A0C94F10BC1CE662331
:1002800011F061E001C060E023C3662311F061E07A
:1002900001C060E059C34F925F926F927F928F923C
:1002A0009F92AF92BF92CF92DF92EF92FF92809097
:1002B000D7049090D804A090D904B090DA04C50176
:1002C000B4010E94130B2B013C01209112023091CA
:1002D000130240911402509115020E94E10A87FF17
:1002E0000BC0B7FC09C0C0900A02D0900B02E0908E
:1002F0000C02F0900D0203C0C12CD12C760120E03D
:1003000030E040E85FE360910E0270910F0280914F
:100310001002909111020E947C0A9B01AC01C30162
:10032000B2010E94C30B87FD09C01092D70410923E
:10033000D8041092D9041092DA040DC08FEF881AF5
:10034000980AA80AB80A8092D7049092D804A0927A
:10035000D904B092DA0420E030E040E853E4C70169
:10036000B6010E94E10A87FF0EC020E030E0A9013B
:10037000C701B6010E94C30B87FD07C0C701B601C4
:100380000E94E50A03C06FEF01C060E089E0FF90C2
:10039000EF90DF90CF90BF90AF909F908F907F9025
:1003A0006F905F904F9071CFCF93DF931092D204F4
:1003B0001092D104C3EDD4E08DE0FE0111928A9534
:1003C000E9F781E08C8781E090E0A0E0B0E08887E9
:1003D0009987AA87BB8761E089E051DF1C821D8273
:1003E0001E821F82DF91CF9108958091DB0490914E
:1003F000DC04A091DD04B091DE040197A105B105F4
:1004000061F482E090E0A0E0B0E08093DB049093A0
:10041000DC04A093DD04B093DE04089508951F92D8
:100420000F920FB60F9211240BB60F922F933F939A
:100430004F935F936F937F938F939F93AF93BF93EC
:10044000EF93FF93E0911E02F0911F021995FF9127
:10045000EF91BF91AF919F918F917F916F915F913C
:100460004F913F912F910F900BBE0F900FBE0F90A9
:100470001F9018951F920F920FB60F9211240BB672
:100480000F922F933F934F935F936F937F938F932D
:100490009F93AF93BF93EF93FF93E0912002F0916E
:1004A00021021995FF91EF91BF91AF919F918F918B
:1004B0007F916F915F914F913F912F910F900BBE64
:1004C0000F900FBE0F901F9018951F920F920FB6AE
:1004D0000F9211240BB60F922F933F934F935F937C
:1004E0006F937F938F939F93AF93BF93EF93FF93FC
:1004F000E0912202F09123021995FF91EF91BF91B3
:10050000AF919F918F917F916F915F914F913F91AB
:100510002F910F900BBE0F900FBE0F901F9018954C
:100520001F920F920FB60F9211240BB60F922F93BA
:100530003F934F935F936F937F938F939F93AF936B
:10054000BF93EF93FF93E0912402F0912502199558
:10055000FF91EF91BF91AF919F918F917F916F919B
:100560005F914F913F912F910F900BBE0F900FBE57
:100570000F901F9018951F920F920FB60F92112493
:100580000BB60F922F933F934F935F936F937F938D
:100590008F939F93AF93BF93EF93FF93E0911A02D2
:1005A000F0911B021995FF91EF91BF91AF919F912F
:1005B0008F917F916F915F914F913F912F910F900C
:1005C0000BBE0F900FBE0F901F9018951F920F92A9
:1005D0000FB60F9211240BB60F922F933F934F93A8
:1005E0005F936F937F938F939F93AF93BF93EF939B
:1005F000FF93E0911C02F0911D021995FF91EF917C
:10060000BF91AF919F918F917F916F915F914F912A
:100610003F912F910F900BBE0F900FBE0F901F9028
:1006200018951F920F920FB60F9211240BB60F92CE
:100630002F933F934F935F936F937F938F939F93EA
:10064000AF93BF93EF93FF93E0912602F0912702BF
:100650001995FF91EF91BF91AF919F918F917F91EC
:100660006F915F914F913F912F910F900BBE0F9023
:100670000FBE0F901F9018951F920F920FB60F92FA
:1006800011240BB60F922F933F934F935F936F9369
:100690007F938F939F93AF93BF93EF93FF93E091DB
:1006A0002802F09129021995FF91EF91BF91AF9126
:1006B0009F918F917F916F915F914F913F912F917A
:1006C0000F900BBE0F900FBE0F901F9018951F92AA
:1006D0000F920FB60F9211242F933F938F939F93F6
:1006E000AF93BF938091450290914602A09147023B
:1006F000B09148023091440223E0230F2D3720F4BB
:100700000196A11DB11D05C026E8230F0296A11D6B
:10071000B11D209344028093450290934602A0931A
:100720004702B09348028091490290914A02A091F9
:100730004B02B0914C020196A11DB11D809349025C
:1007400090934A02A0934B02B0934C02BF91AF9199
:100750009F918F913F912F910F900FBE0F901F90FF
:100760001895789484B5826084BD84B5816084BD19
:1007700085B5826085BD85B5816085BDEEE6F0E01A
:10078000808181608083E1E8F0E010828081826076
:100790008083808181608083E0E8F0E080818160F7
:1007A0008083E1EBF0E0808184608083E0EBF0E027
:1007B000808181608083E1E9F0E0808182608083D4
:1007C000808181608083E0E9F0E0808181608083C6
:1007D000E1EAF0E0808182608083808181608083B3
:1007E000E0EAF0E0808181608083E1E2F1E08081F5
:1007F00082608083808181608083E0E2F1E080819B
:1008000081608083EAE7F0E080818460808380817A
:100810008260808380818160808380818068808322
:100820001092C100089590E0FC013197E231F1058A
:1008300008F04DC08827EE58FF4F8F4FCAC78091F0
:1008400080008F7703C0809180008F7D809380002F
:10085000089580918000877FF9CF84B58F7702C09B
:1008600084B58F7D84BD08958091B0008F7703C0DB
:100870008091B0008F7D8093B000089580919000AA
:100880008F7707C0809190008F7D03C0809190008A
:10089000877F8093900008958091A0008F7707C094
:1008A0008091A0008F7D03C08091A000877F8093FE
:1008B000A0000895809120018F7707C080912001CA
:1008C0008F7D03C080912001877F80932001089550
:1008D000CF93DF9390E0FC01E25BFE4F2491FC019B
:1008E000EC56FE4F8491882361F190E0880F991FA8
:1008F000FC01EC50FE4FC591D491FC01E652FE4F35
:10090000A591B491611109C09FB7F8948881209591
:1009100082238883EC912E230BC0623061F49FB751
:10092000F8943881822F809583238883EC912E2B35
:100930002C939FBF06C08FB7F894E8812E2B288395
:100940008FBFDF91CF9108951F93CF93DF93282F0F
:1009500030E0F901E85FFE4F8491F901E25BFE4F60
:10096000D491F901EC56FE4FC491CC23C1F0162F5F
:10097000811159DFEC2FF0E0EE0FFF1FE652FE4F22
:10098000A591B4918FB7F894111105C09C91ED2FEA
:10099000E095E92302C0EC91ED2BEC938FBFDF9142
:1009A000CF911F910895FC01918D228D892F90E0A8
:1009B000805C9F4F821B91098F7399270895FC01DA
:1009C000918D828D981731F0828DE80FF11D858D04
:1009D00090E008958FEF9FEF0895FC01918D828D37
:1009E000981761F0828DDF01A80FB11D5D968C9183
:1009F000928D9F5F9F73928F90E008958FEF9FEF8E
:100A00000895FC01848DDF01A80FB11DA35ABF4FCB
:100A10002C91848D90E001968F739927848FA689FD
:100A2000B7892C93A089B1898C9180648C93938D24
:100A3000848D981306C00288F389E02D80818F7D14
:100A400080830895CF93DF93EC01888D8823C1F0D4
:100A5000EA89FB89808185FD05C0A889B9898C91C7
:100A600086FD0EC00FB607FCF5CF808185FFF2CF63
:100A7000A889B9898C9185FFEDCFCE01C2DFE8CF7F
:100A8000DF91CF910895EF92FF920F931F93CF9331
:100A9000DF93EC0181E0888F9B8D8C8D981305C0CE
:100AA000E889F989808185FD23C0F62E0B8D10E041
:100AB0000F5F1F4F0F731127E02E8C8DE8120BC0B4
:100AC0000FB607FCFACFE889F989808185FFF5CF59
:100AD000CE0197DFF2CF8B8DFE01E80FF11DE35AB7
:100AE000FF4FF0820B8FEA89FB898081806207C00B
:100AF000EE89FF896083E889F98980818064808339
:100B000081E090E0DF91CF911F910F91FF90EF90E6
:100B10000895CF92DF92EF92FF921F93CF93DF93CE
:100B2000EC016A017B01122FE889F98982E0808358
:100B30004115514E61057105A9F060E079E08DE342
:100B400090E0A701960123D6DA01C9010197A10916
:100B5000B109B695A79597958795AC01411580E1A8
:100B60005807A0F0E889F989108260E874E88EE1FE
:100B700090E0A70196010BD6BA01A9014150510995
:100B8000610971097695679557954795EC85FD85BF
:100B90005083EE85FF854083188EEC89FD89108394
:100BA000EA89FB89808180618083EA89FB89808171
:100BB00088608083EA89FB89808180688083EA89F4
:100BC000FB8980818F7D8083DF91CF911F91FF9082
:100BD000EF90DF90CF9008951F920F920FB60F9273
:100BE00011240BB60F922F938F939F93EF93FF9344
:100BF000E0915D02F0915E028081E0916302F091EC
:100C0000640282FD12C09081809166028F5F8F73B3
:100C100020916702821751F0E0916602F0E0E35BF9
:100C2000FD4F958F8093660201C08081FF91EF9107
:100C30009F918F912F910F900BBE0F900FBE0F9031
:100C40001F9018951F920F920FB60F9211240BB69A
:100C50000F922F933F934F935F936F937F938F9355
:100C60009F93AF93BF93EF93FF938DE492E0C9DE20
:100C7000FF91EF91BF91AF919F918F917F916F9174
:100C80005F914F913F912F910F900BBE0F900FBE30
:100C90000F901F901895EDE4F2E01382128288EE17
:100CA00093E0A0E0B0E084839583A683B78381E3DB
:100CB00092E09183808385EC90E09587848784EC33
:100CC00090E09787868780EC90E0918B808B81EC19
:100CD00090E0938B828B82EC90E0958B848B86ECFA
:100CE00090E0978B868B118E128E138E148E089542
:100CF0001F920F920FB60F9211240BB60F922F93E3
:100D00008F939F93EF93FF93E091FA02F091FB0290
:100D10008081E0910003F091010382FD12C0908177
:100D2000809103038F5F8F7320910403821751F02A
:100D3000E0910303F0E0E651FD4F958F80930303AC
:100D400001C08081FF91EF919F918F912F910F9022
:100D50000BBE0F900FBE0F901F9018951F920F9211
:100D60000FB60F9211240BB60F922F933F934F9310
:100D70005F936F937F938F939F93AF93BF93EF9303
:100D8000FF938AEE92E03DDEFF91EF91BF91AF912C
:100D90009F918F917F916F915F914F913F912F9193
:100DA0000F900BBE0F900FBE0F901F901895EAEE9C
:100DB000F2E01382128288EE93E0A0E0B0E0848338
:100DC0009583A683B78381E392E0918380838DEC42
:100DD00090E0958784878CEC90E09787868788ECF5
:100DE00090E0918B808B89EC90E0938B828B8AECE6
:100DF00090E0958B848B8EEC90E0978B868B118E98
:100E0000128E138E148E08951F920F920FB60F92AA
:100E100011240BB60F922F938F939F93EF93FF9311
:100E2000E0919703F09198038081E0919D03F09108
:100E30009E0382FD12C090818091A0038F5F8F730B
:100E40002091A103821751F0E091A003F0E0E9574F
:100E5000FC4F958F8093A00301C08081FF91EF919B
:100E60009F918F912F910F900BBE0F900FBE0F90FF
:100E70001F9018951F920F920FB60F9211240BB668
:100E80000F922F933F934F935F936F937F938F9323
:100E90009F93AF93BF93EF93FF9387E893E0B1DD08
:100EA000FF91EF91BF91AF919F918F917F916F9142
:100EB0005F914F913F912F910F900BBE0F900FBEFE
:100EC0000F901F901895E7E8F3E01382128288EEE6
:100ED00093E0A0E0B0E084839583A683B78381E3A9
:100EE00092E09183808385ED90E09587848784EDFF
:100EF00090E09787868780ED90E0918B808B81EDE5
:100F000090E0938B828B82ED90E0958B848B86EDC5
:100F100090E0978B868B118E128E138E148E08950F
:100F20001F920F920FB60F9211240BB60F922F93B0
:100F30008F939F93EF93FF93E0913404F0913504E6
:100F40008081E0913A04F0913B0482FD12C09081CF
:100F500080913D048F5F8F7320913E04821751F082
:100F6000E0913D04F0E0EC5DFB4F958F80933D04F4
:100F700001C08081FF91EF919F918F912F910F90F0
:100F80000BBE0F900FBE0F901F9018951F920F92DF
:100F90000FB60F9211240BB60F922F933F934F93DE
:100FA0005F936F937F938F939F93AF93BF93EF93D1
:100FB000FF9384E294E025DDFF91EF91BF91AF9123
:100FC0009F918F917F916F915F914F913F912F9161
:100FD0000F900BBE0F900FBE0F901F901895E4E27C
:100FE000F4E01382128288EE93E0A0E0B0E0848304
:100FF0009583A683B78381E392E09183808385E321
:1010000091E09587848784E391E09787868780E3E2
:1010100091E0918B808B81E391E0938B828B82E3D3
:1010200091E0958B848B86E391E0978B868B118E74
:10103000128E138E148E08958F929F92AF92BF924C
:10104000CF92DF92EF92FF920F931F93CF93DF9394
:101050007C018B016C0182E0C80ED11C4701E5E0E8
:101060008E0E911CC0E0D0E0F60161916F014AE064
:1010700050E0C801C5D05C016EE2C80167D08A0D9E
:101080009B1DC80FD91FC814D90471F74AE050E05E
:10109000F7016581C801B4D08C0F9D1FDF91CF91FE
:1010A0001F910F91FF90EF90DF90CF90BF90AF9086
:1010B0009F908F900895E1ECF4E081E492E09183B9
:1010C000808312821382148215820895CF92DF9258
:1010D000EF92FF920F931F93CF93DF936C017A01EE
:1010E0008B01C0E0D0E0CE15DF0589F0D8016D910D
:1010F0008D01D601ED91FC910190F081E02DC601AA
:101100001995892B11F47E0102C02196ECCFC701FD
:10111000DF91CF911F910F91FF90EF90DF90CF90D3
:1011200008956115710579F0FB0101900020E9F740
:101130003197AF01461B570BDC01ED91FC9102800A
:10114000F381E02D199480E090E00895DC01ED91A9
:10115000FC910190F081E02D19944F925F926F9273
:101160007F92EF92FF920F931F93CF93DF93CDB7B0
:10117000DEB7A1970FB6F894DEBF0FBECDBF7C01DE
:10118000FA01CB0119A2223008F42AE08E010F5D8A
:101190001F4F422E512C612C712CBF01A3019201D3
:1011A000F6D2F901CA01015011096A3014F4605DE8
:1011B00001C0695CD8016C93232B242B252B69F784
:1011C000B801C701AEDFA1960FB6F894DEBF0FBE1F
:1011D000CDBFDF91CF911F910F91FF90EF907F9046
:1011E0006F905F904F9008952115310541F4DC0117
:1011F000ED91FC910190F081E02D642F1994ADCF19
:101200009A01462F50E060E070E0EECF8230A9F006
:1012100028F4882349F0813051F00895843021F179
:10122000E8F0853039F1089510926E0008958091AC
:101230006F008D7F80936F000895809170008D7F87
:101240008093700081E08093B0008091B100887F2E
:1012500084608093B1001092B30008958091710072
:101260008D7F809371000895809172008D7F8093AF
:1012700072000895809173008D7F809373000895AC
:10128000CF93C82F80912A028C1307C0EEE0F2E0C2
:10129000E4918FEF80932A0201C0EFEF8E2FB6DF2B
:1012A00060E08C2FCF9150CB1F920F920FB60F9210
:1012B00011240BB60F922F933F934F935F936F932D
:1012C0007F938F939F93AF93BF93EF93FF938091FF
:1012D000CA049091CB04A091CC04B091CD04892B89
:1012E0008A2B8B2B51F18091C704E091C804F091B7
:1012F000C9049081892780838091CA049091CB048E
:10130000A091CC04B091CD04181619061A061B063C
:10131000BCF48091CA049091CB04A091CC04B0910C
:10132000CD040197A109B1098093CA049093CB041D
:10133000A093CC04B093CD0403C080912A02A0DF17
:10134000FF91EF91BF91AF919F918F917F916F919D
:101350005F914F913F912F910F900BBE0F900FBE59
:101360000F901F90189540E855E260E070E080E033
:1013700090E000C08130910571F01CF4892B39F0A8
:1013800008958230910559F0039769F0089526E099
:101390008DE492E00BC026E08AEE92E007C026E0E2
:1013A00087E893E003C026E084E294E0B2CB1F928A
:1013B0000F920FB60F9211240BB60F922F933F93FB
:1013C0004F935F936F937F938F939F93AF93BF934D
:1013D000EF93FF9387EF92EC909325018093240184
:1013E00034D0FF91EF91BF91AF919F918F917F91F9
:1013F0006F915F914F913F912F910F900BBE0F9086
:101400000FBE0F901F90189587EF92EC90932501D7
:1014100080932401A3E7B0E08C918E7F8C93E0E26F
:10142000F1E080818C7F8083E1E2F1E08081877E42
:10143000808380818560808380818D7F80838C9193
:1014400081608C93089581E008958091CE0491E0AD
:10145000980F9093CE04882339F021E030E0309348
:10146000D0042093CF0407C078940E944B01F894D5
:101470008091CE0481508093CE0408950F931F93E2
:10148000CF93DF931F92CDB7DEB781E0898369D90F
:101490006ADF00912B0210912C02F8011182108258
:1014A0000E94D401B1DF81E0F80120813181232B3A
:1014B00009F080E08983789478948981882389F081
:1014C00081E0F80120813181232B09F080E08983BC
:1014D0008981882311F0B7DF02C080E090E0898322
:1014E000ECCF0E94F501F89480E090E00F90DF913E
:1014F000CF911F910F9108955058BB27AA270ED066
:1015000008C1F9D030F0FED020F031F49F3F11F443
:101510001EF4EEC00EF4E095E7FBE4C0E92F0AD11B
:1015200080F3BA17620773078407950718F071F400
:101530009EF522C10EF4E0950B2EBA2FA02D0B01C3
:10154000B90190010C01CA01A0011124FF27591B08
:1015500099F0593F50F4503E68F11A16F040A22F0E
:10156000232F342F4427585FF3CF4695379527957F
:10157000A795F0405395C9F77EF41F16BA0B620B7E
:10158000730B840BBAF09150A1F0FF0FBB1F661FC5
:10159000771F881FC2F70EC0BA0F621F731F841F08
:1015A00048F4879577956795B795F7959E3F08F02E
:1015B000B3CF9395880F08F09927EE0F97958795ED
:1015C00008956CD008F481E00895BCD088F09F574E
:1015D00090F0B92F9927B751A0F0D1F0660F771F7F
:1015E000881F991F1AF0BA95C9F712C0B13081F05F
:1015F000C3D0B1E00895C0C0672F782F8827B85FA7
:1016000039F0B93FCCF3869577956795B395D9F7BF
:101610003EF490958095709561957F4F8F4F9F4FC9
:101620000895E89409C097FB3EF4909580957095D5
:1016300061957F4F8F4F9F4F9923A9F0F92F96E91E
:10164000BB279395F695879577956795B795F11193
:10165000F8CFFAF4BB0F11F460FF1BC06F5F7F4F30
:101660008F4F9F4F16C0882311F096E911C0772342
:1016700021F09EE8872F762F05C0662371F096E84B
:10168000862F70E060E02AF09A95660F771F881F1A
:10169000DAF7880F9695879597F90895990F0008BE
:1016A000550FAA0BE0E8FEEF16161706E807F90734
:1016B000C0F012161306E407F50798F0621B730BCF
:1016C000840B950B39F40A2661F0232B242B252B50
:1016D00021F408950A2609F4A140A6958FEF811DF3
:1016E000811D089597F99F6780E870E060E0089594
:1016F0009FEF80EC089500240A941616170618062A
:101700000906089500240A94121613061406050605
:101710000895092E0394000C11F4882352F0BB0F96
:1017200040F4BF2B11F460FF04C06F5F7F4F8F4FF9
:101730009F4F089557FD9058440F551F59F05F3F34
:1017400071F04795880F97FB991F61F09F3F79F0E3
:1017500087950895121613061406551FF2CF469565
:10176000F1DF08C0161617061806991FF1CF8695E7
:101770007105610508940895E894BB2766277727CB
:10178000CB0197F908958ADF08F48FEF0895A1E25D
:101790001A2EAA1BBB1BFD010DC0AA1FBB1FEE1FEB
:1017A000FF1FA217B307E407F50720F0A21BB30B36
:1017B000E40BF50B661F771F881F991F1A9469F7B2
:1017C00060957095809590959B01AC01BD01CF010E
:1017D0000895EE0FFF1F881F8BBF0790F691E02D35
:0617E0001994F894FFCFFC
:1017E6000000E0048000010000000000803F0000CF
:1017F60020410000A040000000000E020E020E0272
:101806000E020E020E020E020E02FFD104000000AE
:101816000043056608D304ED04DF0422050000003A
:04182600001C08009A
:00000001FF
