:100000009CC100001BC4000044C400006DC400007B
:1000100096C40000BFC40000E8C4000011C5000081
:100020003AC50000BBC10000B9C10000B7C1000063
:10003000B5C100000C94C50BB1C10000AFC10000F8
:10004000ADC10000ABC10000A9C10000A7C1000004
:10005000A5C10000A3C10000A1C1000047C5000068
:100060009DC100000C945C080C94920897C100009C
:1000700095C1000093C1000091C100008FC1000034
:100080008DC100008BC1000089C1000087C1000044
:100090000C94E8080C941E0981C100007FC1000087
:1000A0007DC100007BC1000079C1000077C1000064
:1000B00075C1000073C1000071C100006FC1000074
:1000C0006DC100006BC100000C94480C0C947409C5
:1000D0000C94AA0963C100000C94000A0C94360A1F
:1000E0005DC100009B069E068D0691069706D5060B
:1000F000A206A606AC06B006B406BA06BE06C2063E
:10010000D506C806CC06D0065414151686168916D0
:1001100059158B1514143414F813631652165F1600
:10012000891689168916E31300000A0B02090C0DC3
:100130000E0807030401000000000000000000009A
:1001400000000000000000000000000000000000AF
:10015000000000001211100000000000000000006C
:10016000000000000000000000000000000001028C
:1001700010202008081020401020408002010201B9
:100180000804020101020408102040808040201071
:1001900008040201800402018040201008040201CA
:1001A0000804020101020408102040800102040832
:1001B000102040800505050507050808080802020B
:1001C00002020A0A080804040404010101010101F1
:1001D00001010303030303030303040707070C0CD4
:1001E0000C0C0C0C0C0C020202020606060606069B
:1001F00006060B0B0B0B0B0B0B0B00002200250054
:1002000028002B002E0031003400020100000501FF
:1002100008010B0100002100240027002A002D0006
:100220003000330001010000040107010A0102004F
:100230001D3A2774694E53E8F5D2CF9C81A6BBCDF9
:10024000D0F7EAB9A4839E25381F02514C6B7687FC
:100250009ABDA0F3EEC9D46F7255481B06213C4AE3
:1002600057706D3E230419A2BF9885D6CBECF113CD
:100270000E2934677A5D40FBE6C1DC8F92B5A8DEBB
:10028000C3E4F9AAB7908D362B0C11425F786594C0
:1002900089AEB3E0FDDAC77C61465B0815322F59A1
:1002A00044637E2D30170AB1AC8B96C5D8FFE22689
:1002B0003B1C01524F6875CED3F4E9BAA7809DEB81
:1002C000F6D1CC9F82A5B8031E3924776A4D50A180
:1002D000BC9B86D5C8EFF24954736E3D20071A6C5B
:1002E00071564B1805223F8499BEA3F0EDCAD7354D
:1002F000280F12415C7B66DDC0E7FAA9B4938EF843
:10030000E5C2DF8C91B6AB100D2A3764795E43B23B
:10031000AF8895C6DBFCE15A47607D2E3314097F18
:100320006245580B16312C978AADB0E3FED9C40054
:10033000BB084709D3095F0ACB0A11241FBECFEFC0
:10034000D1E2DEBFCDBF00E00CBF13E0A0E0B2E021
:10035000E8ECF1E500E00BBF02C007900D92A63774
:10036000B107D9F727E0A6E7B3E001C01D92A1319C
:10037000B207E1F711E0CDE9D1E000E006C0219736
:100380000109802FFE010E946627C839D10780E04D
:100390000807A9F70E9400250C94E22831CE6623B5
:1003A00011F061E001C060E001C5662311F061E079
:1003B00001C060E037C58F929F92AF92BF92CF92FB
:1003C000DF92EF92FF920F931F93C0906E02D09036
:1003D0006F02E0907002F090710220E030E040E89F
:1003E00053E4C701B6010E94E82587FF0EC020E054
:1003F00030E0A901C701B6010E94CA2687FD07C0E7
:10040000C701B6010E94EC2503C06FEF01C060E098
:1004100088E0CBDF81E090E0BDD14091F8065091BB
:10042000F9066091FA067091FB0680E090E0AED18B
:100430008090080790900907A0900A07B0900B07DA
:1004400020E030E040E85FEBC501B4010E94E82500
:10045000882331F1C090F806D090F906E090FA06B2
:10046000F090FB06A7019601C501B4010E94832507
:100470004B015C0120E030E040E054E3C701B601ED
:100480000E94CE269B01AC01C501B4010E94CA2680
:10049000181634F087E892E09093E3068093E20622
:1004A00080910C07882331F087E892E09093E3066F
:1004B0008093E2068091FC069091FD06A091FE06D5
:1004C000B091FF06BC01CD016F5F7F4F8F4F9F4FF3
:1004D0006093FC067093FD068093FE069093FF06E2
:1004E0006115710581059105A1F400910007109136
:1004F000010720910207309103070F5F1F4F2F4F15
:100500003F4F009300071093010720930207309399
:100510000307C0900407D0900507E0900607F0900D
:1005200007070E941826A70196010E94CE264B01BC
:100530005C01609100077091010780910207909122
:1005400003070E941826A70196010E94CE2620E0EC
:1005500030E040E85FE40E94CE269B01AC01C5017B
:10056000B4010E9484256093F8067093F906809385
:10057000FA069093FB061F910F91FF90EF90DF908A
:10058000CF90BF90AF909F908F900895CF93DF93BF
:10059000E2EEF6E08BE2DF011D928A95E9F780E05A
:1005A00090E0A0E8BFEB86A397A3A0A7B1A78DEC2E
:1005B0009CECACE4BEE382A393A3A4A3B5A389E51A
:1005C0009EE4A0E2B8EE84839583A683B78388E88F
:1005D0009CEAADECBDE880879187A287B38781E272
:1005E00098E0A8E4B2E784879587A687B78785EC6B
:1005F0009BE5AEE2B8E6808B918BA28BB38BACE827
:10060000B3E0B383A283C8E8D3E01196DC93CE9322
:1006100082E193E0998388839B838A8386EF96E0C7
:1006200015969C938E93149786EE96E013969C9362
:100630008E93129788EF96E017969C938E93169759
:100640002BED36E087E0E90119928A95E9F7A6E7F4
:10065000B3E082E1ED0119928A95E9F7B58BA48B9D
:100660008FE090E011969C938E9380E592E0139634
:100670009C938E93129782E392E015969C938E93AF
:10068000149786E192E017969C938E9316978AE0D2
:1006900092E019969C938E93189781E0F9018683D6
:1006A00081E090E0A0E0B0E082839383A483B583EF
:1006B00061E088E0DF91CF9172CE8091DD0690916C
:1006C000DE06A091DF06B091E0060197A105B10515
:1006D00061F482E090E0A0E0B0E08093DD069093CA
:1006E000DE06A093DF06B093E0060895EF92FF9236
:1006F0000F931F93CF93DF937C018B01EA010E943C
:100700006410811121C0809172029091730204974C
:1007100011F183E090E090937302809372021BC00A
:1007200098819111F0CF28ED38EB45E050E060E082
:1007300070E0CB010E94EF12AE01B801C7010E9428
:10074000FD12C8010E94CA128091980390919903EA
:10075000892B31F3D8CFDF91CF911F910F91FF906B
:10076000EF900895CF93DF9320917202309173023E
:100770002430310541F0EB010E94FD12CE01DF91E2
:10078000CF910C94CA12DF91CF9108950C94191750
:100790000C940E170C94FC160C94DA120C94A116FF
:1007A000089560E070E080E090E00C943F100895C0
:1007B000AF92BF92CF92DF92EF92FF920F931F936F
:1007C000CF93DF931F921F92CDB7DEB75C01690113
:1007D0007A018B0180E090E0C114D104E104F104BE
:1007E000F1F0C114D10421E0E206F10410F4A601F5
:1007F00002C04FEF5FEF9E012F5F3F4FB801C50171
:100800000E94BA178F3F2FEF920749F029813A8152
:10081000C21AD30AE108F108020F131FDDCF0F90AF
:100820000F90DF91CF911F910F91FF90EF90DF908C
:10083000CF90BF90AF900895089508951F920F92A2
:100840000FB60F9211240BB60F922F933F934F9335
:100850005F936F937F938F939F93AF93BF93EF9328
:10086000FF93E0917802F09179021995FF91EF9151
:10087000BF91AF919F918F917F916F915F914F91B8
:100880003F912F910F900BBE0F900FBE0F901F90B6
:1008900018951F920F920FB60F9211240BB60F925C
:1008A0002F933F934F935F936F937F938F939F9378
:1008B000AF93BF93EF93FF93E0917A02F0917B02A5
:1008C0001995FF91EF91BF91AF919F918F917F917A
:1008D0006F915F914F913F912F910F900BBE0F90B1
:1008E0000FBE0F901F9018951F920F920FB60F9288
:1008F00011240BB60F922F933F934F935F936F93F7
:100900007F938F939F93AF93BF93EF93FF93E09168
:100910007C02F0917D021995FF91EF91BF91AF910B
:100920009F918F917F916F915F914F913F912F9107
:100930000F900BBE0F900FBE0F901F9018951F9237
:100940000F920FB60F9211240BB60F922F933F9375
:100950004F935F936F937F938F939F93AF93BF93C7
:10096000EF93FF93E0917E02F0917F021995FF9142
:10097000EF91BF91AF919F918F917F916F915F9117
:100980004F913F912F910F900BBE0F900FBE0F9084
:100990001F9018951F920F920FB60F9211240BB64D
:1009A0000F922F933F934F935F936F937F938F9308
:1009B0009F93AF93BF93EF93FF93E0917402F091F5
:1009C00075021995FF91EF91BF91AF919F918F9112
:1009D0007F916F915F914F913F912F910F900BBE3F
:1009E0000F900FBE0F901F9018951F920F920FB689
:1009F0000F9211240BB60F922F933F934F935F9357
:100A00006F937F938F939F93AF93BF93EF93FF93D6
:100A1000E0917602F09177021995FF91EF91BF91E5
:100A2000AF919F918F917F916F915F914F913F9186
:100A30002F910F900BBE0F900FBE0F901F90189527
:100A40001F920F920FB60F9211240BB60F922F9395
:100A50003F934F935F936F937F938F939F93AF9346
:100A6000BF93EF93FF93E0918002F091810219957B
:100A7000FF91EF91BF91AF919F918F917F916F9176
:100A80005F914F913F912F910F900BBE0F900FBE32
:100A90000F901F9018951F920F920FB60F9211246E
:100AA0000BB60F922F933F934F935F936F937F9368
:100AB0008F939F93AF93BF93EF93FF93E091820245
:100AC000F09183021995FF91EF91BF91AF919F91A2
:100AD0008F917F916F915F914F913F912F910F90E7
:100AE0000BBE0F900FBE0F901F9018951F920F9284
:100AF0000FB60F9211242F933F938F939F93AF9331
:100B0000BF9380919B0390919C03A0919D03B09112
:100B10009E0330919A0323E0230F2D3720F4019692
:100B2000A11DB11D05C026E8230F0296A11DB11D10
:100B300020939A0380939B0390939C03A0939D031F
:100B4000B0939E0380919F039091A003A091A10375
:100B5000B091A2030196A11DB11D80939F039093B4
:100B6000A003A093A103B093A203BF91AF919F9163
:100B70008F913F912F910F900FBE0F901F9018955E
:100B80003FB7F89480919F039091A003A091A10397
:100B9000B091A20326B5A89B05C02F3F19F001967E
:100BA000A11DB11D3FBFBA2FA92F982F8827820FF3
:100BB000911DA11DB11DBC01CD0142E0660F771F43
:100BC000881F991F4A95D1F708958F929F92AF92EF
:100BD000BF92CF92DF92EF92FF926B017C01D0DF48
:100BE0004B015C01C114D104E104F104F1F024DEF5
:100BF000C7DFDC01CB0188199909AA09BB09883E26
:100C00009340A105B10570F321E0C21AD108E108B3
:100C1000F10888EE880E83E0981EA11CB11CC11457
:100C2000D104E104F10421F7DDCFFF90EF90DF90D4
:100C3000CF90BF90AF909F908F900895789484B597
:100C4000826084BD84B5816084BD85B5826085BDC8
:100C500085B5816085BDEEE6F0E0808181608083AE
:100C6000E1E8F0E010828081826080838081816091
:100C70008083E0E8F0E0808181608083E1EBF0E058
:100C8000808184608083E0EBF0E0808181608083FC
:100C9000E1E9F0E0808182608083808181608083EF
:100CA000E0E9F0E0808181608083E1EAF0E080812A
:100CB00082608083808181608083E0EAF0E08081CF
:100CC00081608083E1E2F1E08081826080838081C5
:100CD00081608083E0E2F1E0808181608083EAE7E7
:100CE000F0E0808184608083808182608083808165
:100CF000816080838081806880831092C100089524
:100D000090E0FC013197E231F10508F04EC08827F0
:100D1000EE58FF4F8F4F0C946627809180008F779D
:100D200003C0809180008F7D809380000895809122
:100D30008000877FF9CF84B58F7702C084B58F7D1F
:100D400084BD08958091B0008F7703C08091B0007A
:100D50008F7D8093B0000895809190008F7707C0B9
:100D6000809190008F7D03C080919000877F809359
:100D7000900008958091A0008F7707C08091A00017
:100D80008F7D03C08091A000877F8093A00008958D
:100D9000809120018F7707C0809120018F7D03C053
:100DA00080912001877F809320010895CF93DF9366
:100DB00090E0FC01E259FE4F2491FC01EC54FE4FFF
:100DC0008491882361F190E0880F991FFC01EC5E0B
:100DD000FD4FC591D491FC01E650FE4FA591B49111
:100DE000611109C09FB7F894888120958223888378
:100DF000EC912E230BC0623061F49FB7F8943881D8
:100E0000822F809583238883EC912E2B2C939FBF78
:100E100006C08FB7F894E8812E2B28838FBFDF910F
:100E2000CF9108951F93CF93DF93282F30E0F901DE
:100E3000E85DFE4F8491F901E259FE4FD491F9012A
:100E4000EC54FE4FC491CC23C1F0162F811158DF12
:100E5000EC2FF0E0EE0FFF1FE650FE4FA591B4918E
:100E60008FB7F894111105C09C91ED2FE095E923FF
:100E700002C0EC91ED2BEC938FBFDF91CF911F91CE
:100E80000895FC01918D228D892F90E0805C9F4F09
:100E9000821B91098F7399270895FC01918D828D92
:100EA000981731F0828DE80FF11D858D90E008953F
:100EB0008FEF9FEF0895FC01918D828D981761F05F
:100EC000828DDF01A80FB11D5D968C91928D9F5F81
:100ED0009F73928F90E008958FEF9FEF0895FC012C
:100EE000848DDF01A80FB11DA35ABF4F2C91848DB3
:100EF00090E001968F739927848FA689B7892C93E8
:100F0000A089B1898C9180648C93938D848D981382
:100F100006C00288F389E02D80818F7D808308954B
:100F2000CF93DF93EC01888D8823C1F0EA89FB8998
:100F3000808185FD05C0A889B9898C9186FD0EC088
:100F40000FB607FCF5CF808185FFF2CFA889B9895C
:100F50008C9185FFEDCFCE01C2DFE8CFDF91CF913D
:100F60000895EF92FF920F931F93CF93DF93EC01BD
:100F700081E0888F9B8D8C8D981305C0E889F98955
:100F8000808185FD23C0F62E0B8D10E00F5F1F4F73
:100F90000F731127E02E8C8DE8120BC00FB607FCE3
:100FA000FACFE889F989808185FFF5CFCE0197DFF7
:100FB000F2CF8B8DFE01E80FF11DE35AFF4FF08257
:100FC0000B8FEA89FB898081806207C0EE89FF89E7
:100FD0006083E889F98980818064808381E090E082
:100FE000DF91CF911F910F91FF90EF900895CF92D5
:100FF000DF92EF92FF921F93CF93DF93EC016A0190
:101000007B01122FE889F98982E080834115514ED6
:1010100061057105B1F060E079E08DE390E0A70132
:1010200096010E944427DA01C9010197A109B1097B
:10103000B695A79597958795AC01411580E158071E
:10104000A8F0E889F989108260E874E88EE190E000
:10105000A70196010E944427BA01A90141505109F4
:10106000610971097695679557954795EC85FD85DA
:101070005083EE85FF854083188EEC89FD891083AF
:10108000EA89FB89808180618083EA89FB8980818C
:1010900088608083EA89FB89808180688083EA890F
:1010A000FB8980818F7D8083DF91CF911F91FF909D
:1010B000EF90DF90CF9008951F920F920FB60F928E
:1010C00011240BB60F922F938F939F93EF93FF935F
:1010D000E091B303F091B4038081E091B903F09102
:1010E000BA0382FD12C090818091BC038F5F8F7321
:1010F0002091BD03821751F0E091BC03F0E0ED5563
:10110000FC4F958F8093BC0301C08081FF91EF91CC
:101110009F918F912F910F900BBE0F900FBE0F904C
:101120001F9018951F920F920FB60F9211240BB6B5
:101130000F922F933F934F935F936F937F938F9370
:101140009F93AF93BF93EF93FF9383EA93E0C7DE40
:10115000FF91EF91BF91AF919F918F917F916F918F
:101160005F914F913F912F910F900BBE0F900FBE4B
:101170000F901F901895E3EAF3E01382128288EE35
:1011800093E0A0E0B0E084839583A683B78389E1F0
:1011900093E09183808385EC90E09587848784EC4D
:1011A00090E09787868780EC90E0918B808B81EC34
:1011B00090E0938B828B82EC90E0958B848B86EC15
:1011C00090E0978B868B118E128E138E148E08955D
:1011D0001F920F920FB60F9211240BB60F922F93FE
:1011E0008F939F93EF93FF93E0915004F0915104FC
:1011F0008081E0915604F091570482FD12C09081E5
:10120000809159048F5F8F7320915A04821751F097
:10121000E0915904F0E0E05CFB4F958F8093590416
:1012200001C08081FF91EF919F918F912F910F903D
:101230000BBE0F900FBE0F901F9018951F920F922C
:101240000FB60F9211240BB60F922F933F934F932B
:101250005F936F937F938F939F93AF93BF93EF931E
:10126000FF9380E494E03BDEFF91EF91BF91AF915B
:101270009F918F917F916F915F914F913F912F91AE
:101280000F900BBE0F900FBE0F901F901895E0E4CB
:10129000F4E01382128288EE93E0A0E0B0E0848351
:1012A0009583A683B78389E193E0918380838DEC56
:1012B00090E0958784878CEC90E09787868788EC10
:1012C00090E0918B808B89EC90E0938B828B8AEC01
:1012D00090E0958B848B8EEC90E0978B868B118EB3
:1012E000128E138E148E08951F920F920FB60F92C6
:1012F00011240BB60F922F938F939F93EF93FF932D
:10130000E091ED04F091EE048081E091F304F0911E
:10131000F40482FD12C090818091F6048F5F8F7378
:101320002091F704821751F0E091F604F0E0E352C7
:10133000FB4F958F8093F60401C08081FF91EF9160
:101340009F918F912F910F900BBE0F900FBE0F901A
:101350001F9018951F920F920FB60F9211240BB683
:101360000F922F933F934F935F936F937F938F933E
:101370009F93AF93BF93EF93FF938DED94E0AFDD19
:10138000FF91EF91BF91AF919F918F917F916F915D
:101390005F914F913F912F910F900BBE0F900FBE19
:1013A0000F901F901895EDEDF4E01382128288EEF5
:1013B00093E0A0E0B0E084839583A683B78389E1BE
:1013C00093E09183808385ED90E09587848784ED19
:1013D00090E09787868780ED90E0918B808B81ED00
:1013E00090E0938B828B82ED90E0958B848B86EDE1
:1013F00090E0978B868B118E128E138E148E08952B
:101400001F920F920FB60F9211240BB60F922F93CB
:101410008F939F93EF93FF93E0918A05F0918B0553
:101420008081E0919005F091910582FD12C090813C
:10143000809193058F5F8F7320919405821751F0EF
:10144000E0919305F0E0E658FA4F958F809393056D
:1014500001C08081FF91EF919F918F912F910F900B
:101460000BBE0F900FBE0F901F9018951F920F92FA
:101470000FB60F9211240BB60F922F933F934F93F9
:101480005F936F937F938F939F93AF93BF93EF93EC
:10149000FF938AE795E023DDFF91EF91BF91AF9134
:1014A0009F918F917F916F915F914F913F912F917C
:1014B0000F900BBE0F900FBE0F901F901895EAE78C
:1014C000F5E01382128288EE93E0A0E0B0E084831E
:1014D0009583A683B78389E193E09183808385E335
:1014E00091E09587848784E391E09787868780E3FE
:1014F00091E0918B808B81E391E0938B828B82E3EF
:1015000091E0958B848B86E391E0978B868B118E8F
:10151000128E138E148E08958F929F92AF92BF9267
:10152000CF92DF92EF92FF920F931F93CF93DF93AF
:101530007C018B016C0182E0C80ED11C4701E5E003
:101540008E0E911CC0E0D0E0F60161916F014AE07F
:1015500050E0C801C6D05C016EE2C80167D08A0DB8
:101560009B1DC80FD91FC814D90471F74AE050E079
:10157000F7016581C801B5D08C0F9D1FDF91CF9118
:101580001F910F91FF90EF90DF90CF90BF90AF90A1
:101590009F908F900895E7E1F6E089E293E09183D0
:1015A000808312821382148215820895CF92DF9273
:1015B000EF92FF920F931F93CF93DF936C017A0109
:1015C0008B01C0E0D0E0CE15DF0589F0D8016D9128
:1015D0008D01D601ED91FC910190F081E02DC601C5
:1015E0001995892B11F47E0102C02196ECCFC70119
:1015F000DF91CF911F910F91FF90EF90DF90CF90EF
:1016000008956115710579F0FB0101900020E9F75B
:101610003197AF01461B570BDC01ED91FC91028025
:10162000F381E02D199480E090E00895DC01ED91C4
:10163000FC910190F081E02D19944F925F926F928E
:101640007F92EF92FF920F931F93CF93DF93CDB7CB
:10165000DEB7A1970FB6F894DEBF0FBECDBF7C01F9
:10166000FA01CB0119A2223008F42AE08E010F5DA5
:101670001F4F422E512C612C712CBF01A3019201EE
:101680000E944427F901CA01015011096A3014F47B
:10169000605D01C0695CD8016C93232B242B252B42
:1016A00061F7B801C701ADDFA1960FB6F894DEBFB0
:1016B0000FBECDBFDF91CF911F910F91FF90EF90A3
:1016C0007F906F905F904F9008952115310541F400
:1016D000DC01ED91FC910190F081E02D642F1994D3
:1016E000ACCF9A01462F50E060E070E0EECF823040
:1016F000A9F028F4882349F0813051F0089584300E
:1017000021F1E8F0853039F1089510926E000895C6
:1017100080916F008D7F80936F000895809170009D
:101720008D7F8093700081E08093B0008091B10044
:10173000887F84608093B1001092B30008958091F7
:1017400071008D7F809371000895809172008D7F6C
:10175000809372000895809173008D7F8093730051
:101760000895CF93C82F809184028C1307C0EEE2B6
:10177000F2E0E4918FEF8093840201C0EFEF8E2FAF
:10178000B6DF60E08C2FCF914DCB1F920F920FB63A
:101790000F9211240BB60F922F933F934F935F93A9
:1017A0006F937F938F939F93AF93BF93EF93FF9329
:1017B0008091200690912106A0912206B0912306E7
:1017C000892B8A2B8B2B51F180911D06E0911E06EF
:1017D000F0911F0690818927808380912006909147
:1017E0002106A0912206B0912306181619061A06A2
:1017F0001B06BCF48091200690912106A091220640
:10180000B09123060197A109B10980932006909316
:101810002106A0932206B093230603C08091840280
:10182000A0DFFF91EF91BF91AF919F918F917F9139
:101830006F915F914F913F912F910F900BBE0F9041
:101840000FBE0F901F90189540E855E260E070E0E1
:1018500080E090E000C08130910571F01CF4892B8C
:1018600039F008958230910559F0039769F0089591
:1018700026E083EA93E00BC026E080E494E007C012
:1018800026E08DED94E003C026E08AE795E0AFCB3B
:101890001F920F920FB60F9211240BB60F922F9337
:1018A0003F934F935F936F937F938F939F93AF93E8
:1018B000BF93EF93FF938BEC93EF9093250180936D
:1018C00024010E94E424FF91EF91BF91AF919F9179
:1018D0008F917F916F915F914F913F912F910F90D9
:1018E0000BBE0F900FBE0F901F9018958BEC93EFCF
:1018F0009093250180932401A3E7B0E08C918E7F23
:101900008C93E0E2F1E080818C7F8083E1E2F1E082
:101910008081877E808380818560808380818D7FC8
:1019200080838C9181608C93089581E008956F92FB
:101930007F928F929F92AF92BF92CF92DF92EF925F
:10194000FF920F931F93CF93DF935C017B014A01BA
:1019500001E010E00E151F0564F568018FEFC81A4D
:10196000D80AE801CC0FDD1FC80DD91D6880798029
:1019700061147104E1F06BE273E0C3010E94D928A5
:10198000892B19F41982188212C06EE273E0C30128
:101990000E94D928892B59F4CE14DF0441F0680144
:1019A000E2E0CE0ED11C198218821B821A828601B7
:1019B000D1CF81E0F5018083B401C7010E944217B5
:1019C000F5019283818380E090E0DF91CF911F91B8
:1019D0000F91FF90EF90DF90CF90BF90AF909F90CE
:1019E0008F907F906F90089584E296E0089580E054
:1019F00008950F931F93CF93DF938B01BA01E901F1
:101A0000198218829801012E000C440B550BFC0121
:101A1000818192810E94D803019621F01983088365
:101A200080E001C081E0DF91CF911F910F91089577
:101A30000F931F93CF93DF931F921F92CDB7DEB703
:101A4000FB018A01B9019E012F5F3F4FAF01FC01ED
:101A5000818192810E945B17019639F089819A8178
:101A6000F8019183808380E001C081E00F900F90A6
:101A7000DF91CF911F910F910895FC01808108950E
:101A80000895089581E0FB01808380E00895089522
:101A900010924E060895FC01818192810C943917B1
:101AA000CF93DF93CDB7DEB72A970FB6F894DEBF9A
:101AB0000FBECDBFAC01CB0160E070E049835A831B
:101AC0006B837C83092E000CAA0BBB0B8D839E833A
:101AD000AF83B8879E01275F3F4FAE014F5F5F4FD7
:101AE00068E070E080913D0690913E0682DF8111B2
:101AF00008C081E029853A852830310519F480E055
:101B000001C081E02A960FB6F894DEBF0FBECDBFAC
:101B1000DF91CF9108950F931F93CF93DF931F927F
:101B20001F92CDB7DEB78B019E012F5F3F4FAC01F7
:101B300080913D0690913E065CDF811108C081E0F6
:101B400029813A812017310719F480E001C081E032
:101B50000F900F90DF91CF911F910F910895CF9328
:101B6000DF93EC01109241061092400610924D0650
:101B700010924C06AC0160E070E0CB010E949F1E09
:101B8000AE0161E070E080E090E00E949F1E8091D5
:101B90003D0690913E06DF91CF9179CF4F925F92B3
:101BA0006F927F928F929F92AF92BF92CF92DF926D
:101BB000EF92FF920F931F93CF93DF931F921F9289
:101BC000CDB7DEB79C016C0197FF03C087E0C80E5C
:101BD000D11C43E0D594C7944A95E1F7C90168E068
:101BE00070E00E9431277C0189010E5F1F4F8091B8
:101BF0003B0690913C06801791070CF0DCC0809169
:101C0000390690913A06009731F00E9431281092DF
:101C10003C0610923B06C8010E949C2790933A060E
:101C200080933906892B29F010933C0600933B06DC
:101C3000C2C0A12CB12CAC14BD040CF05EC0412C70
:101C4000512C320100E010E098012E5B394FAE01BB
:101C50004F5F5F4F61E070E080913D0690913E06DE
:101C6000E7DE811198C189819A812FEF421A520AC9
:101C7000620A720A20E942162FE5520621E0620646
:101C800071043CF060914C0670914D068DEE90E031
:101C90002DC0080F191F0A30110551F549E050E019
:101CA00060E070E082E496E00E94D62460914C06E9
:101CB00070914D068823C1F080914A0690E0681724
:101CC000790709F0B8CF8EEE90E0EADE80914C06FD
:101CD00090914D060196992790934D0680934C065E
:101CE0008FEFA81AB80AA7CF8FEE90E0D9DEA7CF62
:101CF0000A3011050CF4A8CF9ECFEF2809F44BC190
:101D0000C12CD12C760100E010E098012E5B394FF8
:101D1000AE014F5F5F4F61E070E080913D069091B2
:101D20003E0686DE811137C189819A812FEFC21A62
:101D3000D20AE20AF20A20E9C2162FE5D20621E011
:101D4000E206F1043CF060914C0670914D068DEE78
:101D500090E02AC0080F191F0A30110539F549E033
:101D600050E060E070E082E496E00E94D62460914A
:101D70004C0670914D068823A9F080914A0690E0A8
:101D80006817790709F007C18EEE90E089DE80912F
:101D90004C0690914D060196992790934D0680939D
:101DA0004C06F9C08FEE90E07BDEAACF0A30110519
:101DB0000CF4ABCFF0C000E010E00C151D050CF0EA
:101DC00077C0412C512C3201A12CB12C480193E059
:101DD000880C991C9A95E1F72091390630913A06C2
:101DE000C4018A0D9B1D280F391FAE014F5F5F4F45
:101DF00061E070E080913D0690913E0619DE811110
:101E0000CAC089819A812FEF421A520A620A720A65
:101E100020E942162FE5520621E0620671043CF0EB
:101E200060914C0670914D068DEE90E034C0A80E86
:101E3000B91E8AE0A816B104A9F549E050E0B40142
:101E40008091390690913A060E94D62460914C0602
:101E500070914D068823E9F08091390690913A06F9
:101E6000FC01E80DF91D808590E06817790709F0FD
:101E7000A4CF8EEE90E014DE80914C0690914D063A
:101E80000196992790934D0680934C060F5F1F4F44
:101E900094CF8FEE90E004DE412C512C3201A12C26
:101EA000B12C9ACF2AE0A216B1040CF495CF85CFBD
:101EB000E114F10409F46AC0680183E0CC0CDD1C74
:101EC0008A95E1F7812C912C540100E010E09801F3
:101ED0002E5B394FAE014F5F5F4F61E070E0809144
:101EE0003D0690913E06A4DD811155C089819A81FD
:101EF0002FEF821A920AA20AB20A20E982162FE56F
:101F0000920621E0A206B1043CF060914C0670916B
:101F10004D068DEE90E034C0080F191F0A301105F0
:101F200089F549E050E060E070E082E496E00E94CC
:101F3000D62460914C0670914D068823F9F080916B
:101F40004A0690E06817790709F58EEE90E0A8DD63
:101F50008091390690913A06A70162E476E08C0DF3
:101F60009D1D0E94C92880914C0690914D060196B6
:101F7000992790934D0680934C0608C08FEE90E011
:101F80008FDDA0CF0A3011050CF4A1CF8091390666
:101F900090913A0602C080E090E00F900F90DF91A0
:101FA000CF911F910F91FF90EF90DF90CF90BF9056
:101FB000AF909F908F907F906F905F904F9008951B
:101FC000CF92DF92EF92FF920F931F93CF93DF9305
:101FD0001F92CDB7DEB76C017B018A01452B39F02A
:101FE000AB0160E070E0C8010E94D2248983B70190
:101FF000C60156DD81110DC00115110551F0B70163
:10200000C80189DD811105C061E070E0CE01019653
:1020100082DD0F90DF91CF911F910F91FF90EF9094
:10202000DF90CF900895CF92DF92EF92FF92CF93FF
:10203000DF93CDB7DEB728970FB6F894DEBF0FBE9B
:10204000CDBF6B01E12CF12CC982DA82EB82FC82DC
:102050002D833E834F835887AE014F5F5F4F68E00B
:1020600070E0AEDF28960FB6F894DEBF0FBECDBF8E
:10207000DF91CF91FF90EF90DF90CF9008950F9375
:102080001F93CF93DF93EC018B01AEDC90933E0660
:1020900080933D06009739F0A801BE0148DCEC01B1
:1020A000892B19F40BC0CAE3D3E080913D069091CF
:1020B0003E06E6DC10923E0610923D06CE01DF9110
:1020C000CF911F910F91089580913D0690913E060A
:1020D000D4CC2F923F924F925F926F927F928F92C9
:1020E0009F92AF92BF92CF92DF92EF92FF920F93A7
:1020F0001F93CF93DF93CDB7DEB769970FB6F894F0
:10210000DEBF0FBECDBF20914106222309F429C2B4
:102110005D8B4C8B688B798B8A8B9B8B9A01AB0187
:10212000BC01CE0101960E948F2310E038E0232EDF
:10213000312C89819A81181619060CF00DC21F8660
:102140001E861D861C8689819A81AC85BD85A8174F
:10215000B9070CF0F6C1EB81FC812E853F85E20FBB
:10216000F31F208131813093380620933706848114
:102170009581909336068093350642815381509322
:10218000340640933306468157815093320640937C
:102190003106820F931F9C01990F440B550B2E8B18
:1021A0003F8B488F598FC12CD12C76012E893F89C6
:1021B000488D598DC216D306E406F50608F0A5C170
:1021C0001F8260913706709138068B01072E000C34
:1021D000220B330BD701C6010496A11DB11D801738
:1021E0009107A207B30728F4E0913306F091340673
:1021F0000AC0E4E0F0E0E61BF70BEC0DFD1D80915A
:10220000310690913206E80FF91F4080512C612C65
:10221000712CD701C6010596A11DB11D801791072C
:10222000A207B30728F4E0913306F09134060AC000
:10223000E5E0F0E0E61BF70BEC0DFD1D80913106AB
:1022400090913206E80FF91F8081582AD701C60104
:102250000696A11DB11D80179107A207B30728F4A8
:10226000E0913306F09134060AC0E6E0F0E0E61BA8
:10227000F70BEC0DFD1D8091310690913206E80FB1
:10228000F91F8081682AD701C6010796A11DB11DDB
:1022900080179107A207B30728F4E0913306F09165
:1022A00034060AC0E7E0F0E0E61BF70BEC0DFD1D7D
:1022B0008091310690913206E80FF91F8081782ACB
:1022C0004601570148E0840E911CA11CB11C081561
:1022D00019052A053B0508F4B6C0C016D106E2066A
:1022E000F30638F480913306909134068C0D9D1DD1
:1022F00009C0C601861B970B20913106309132062A
:10230000820F931F68E070E006DCE0913706F091E1
:1023100038069F010F2E000C440B550BD301C20150
:10232000880D991DAA1DBB1D281739074A075B0791
:10233000C8F082169306A406B50638F42091330639
:1023400030913406C601089609C0C1018E1B9F0B4F
:102350008C0D9D1D2091310630913206820F931F06
:10236000B2019BC08601BF01685071096C197D09DB
:1023700082169306A406B50638F4209133063091F0
:102380003406C601089609C0C1018E1B9F0B8C0D37
:102390009D1D2091310630913206820F931FBBDBC9
:1023A0008091370690913806B101681B790B600F58
:1023B000711F640D751D8091310690913206ABDB63
:1023C0008091370690913806AC0148505109FA01C6
:1023D000E01BF10BAC01092E000C660B770B841689
:1023E0009506A606B70638F42091330630913406D8
:1023F000C60108960AC09101281B390BC9018C0D32
:102400009D1D2091310630913206820F931FAF013E
:1024100060E070E00E94D2248F83209137063091D3
:102420003806A101421B530B9A01200F311F240DC6
:10243000351D40E050E0682F8091310690913206C2
:102440000E94BE2451C0C016D106E206F306C8F4AD
:102450006C197D0980913306909134068C0D9D1D79
:102460005ADB8091370690913806B101681B790BD1
:102470006C0D7D1D640D751D8091310690913206A5
:102480000CC0C601861B970B209131063091320695
:10249000B201685F7F4F820F931F3DDB809137064B
:1024A00090913806AC01092E000C660B770B841650
:1024B0009506A606B70638F4209133063091340607
:1024C000C60108960AC0D101A81BB90BCD018C0D1D
:1024D0009D1D2091310630913206820F931FA2017B
:1024E00060E070E00E94D2248F8361E070E0CE0152
:1024F000079611DB182FB8E04B0E511C611C711CA4
:10250000C40CD51CE61CF71C51CE8C859D85880F0C
:10251000991FED81FE81E80FF91F488959896A8961
:102520007B89808191810E94D11E4C855D854F5FA2
:102530005F4F5D874C878E859F8508969F878E8726
:1025400002CE2C893D89488959896A897B89CE01C7
:1025500001960E948F23EDCD112319F08C899D895E
:10256000FEDA69960FB6F894DEBF0FBECDBFDF91DD
:10257000CF911F910F91FF90EF90DF90CF90BF9080
:10258000AF909F908F907F906F905F904F903F9013
:102590002F900895CF93DF93EC01AC0160E070E0E1
:1025A000CB0197DDAE0161E070E080E090E0DF916B
:1025B000CF918FCDCF9380913D0690913E0617DA53
:1025C000C82F811109C060E070E0CB01C0D661E086
:1025D00070E080E090E0BBD68C2FCF9108950F93F0
:1025E0001F9389019A01AB01BC0180913D06909136
:1025F0003E0647DA1F910F9108953F924F925F92E6
:102600006F927F928F929F92AF92BF92CF92DF9202
:10261000EF92FF920F931F93CF93DF93CDB7DEB767
:1026200067970FB6F894DEBF0FBECDBF6C017B017C
:102630005A0180914106882331F080914106882318
:1026400009F467C30AC061E476E080913D06909189
:102650003E0618DA81115DC3F0CF809140061A82E0
:102660001982882309F46BC0E0E94E2EEFE55E2E57
:1026700066246394712C00E010E09801295D394FC5
:10268000AE014F5F5F4F61E070E080913D06909139
:102690003E06CED9982E81114EC089819A81080FAD
:1026A000191F0115110509F446C081E0481A5108A7
:1026B0006108710839F460914C0670914D068DEEF9
:1026C00090E031C00A30110591F549E050E060E03A
:1026D00070E087E296E00E94D62460914C067091EB
:1026E0004D068823F1F080912F0690E06817790756
:1026F000D9F48EEE90E0D4D988E0E7E2F6E0DE018E
:10270000199601900D928A95E1F720914C0630912F
:102710004D062F5F3F4F332730934D0620934C06D5
:102720000AC08FEE90E0BCD91A82198204C00A3028
:1027300011050CF4A2CF81E029813A8124C000E088
:1027400010E078E0672E712C29E030E02C0F3D1F5F
:10275000200F311FAE014F5F5F4FB301601B710B44
:1027600080913D0690913E0663D9982E29813A8149
:10277000811108C0020F131F0115110519F008304F
:10278000110514F381E0121613060CF080E091108D
:10279000BDC2882309F4BDC280914006811104C0E6
:1027A00019861A861B861C8689859A85AB85BC8509
:1027B0008031910508F0ADC2FC018827EC57FF4F2E
:1027C0008F4F0C946627D6011696ED91FC911797C2
:1027D00080819181A281B38189839A83AB83BC83F9
:1027E000AE014F5F5F4F64E070E085E190E07FC134
:1027F0008D859E85D3D9009731F42FEF3FEFA90146
:1028000061E070E00EC0FC0180809180A280B38006
:10281000A701C501B4010E944A1EA501940160E010
:1028200070E08DE190E070C28D859E85B7D90097EC
:1028300021F42FEF3FEFA9010FC0DC018D909D9097
:10284000AD90BD90AD0195018401B701C601C4D61C
:10285000A5019401882319F061E070E002C060E0F6
:1028600070E08BE190E050C28D859E8597D90097EE
:1028700021F42FEF3FEFA9010FC0FC01819091904F
:10288000A190B190BF01A5019401C6010E94EF1C67
:10289000A5019401882319F061E070E002C060E0B6
:1028A00070E08CE190E030C2D6011496ED91FC917D
:1028B000159700811181F80182809380A080B180FA
:1028C00060E1462E512C612C712C49825A826B8218
:1028D0007C8288E090E0A0E0B0E08D839E83AF83AF
:1028E000B8879E012F5E3F4FAE014F5F5F4F68E09C
:1028F00070E080913D0690913E067BD8882319F0C8
:1029000000E010E0BCC089899A890897C9F7D8010E
:10291000ED90FC90B8E0EB0EF11CEE0CFF1CEE0C01
:10292000FF1CC7010E949C278C01892B49F3498217
:102930005A826B827C82C7010F2C000CAA0BBB0B46
:102940008D839E83AF83B8879E012F5E3F4FAE017C
:102950004F5F5F4F68E070E080913D0690913E06CA
:1029600048D881118CC089899A89089709F087C055
:10297000D6011296ED91FC911397408151816281AD
:102980007381D8014D935D936D937C93139744812C
:1029900055816681778114964D935D936D937C93F9
:1029A0001797408551856285738518964D935D9381
:1029B0006D937C931B9784859585A685B785F801D3
:1029C00084879587A687B787108A118A128A138A07
:1029D00084E090E0A0E0B0E0848B958BA68BB78B71
:1029E0008091720290917302A0E0B0E0808F918F8D
:1029F000A28FB38FC5010B2C000CAA0BBB0B848FCD
:102A0000958FA68FB78FF401D801909680E090E063
:102A10008A159B0554F44191519160E070E04D930B
:102A20005D936D937D930196F3CF9E012F5E3F4F93
:102A3000A801B70180913D0690913E060E94F90CD5
:102A400081111DC089899A898E159F05C1F4A7013E
:102A500060E070E0C8010E94D2248B8B9E012F5E43
:102A60003F4FAE014D5E5F4F61E070E080913D06EB
:102A700090913E060E94F90C81E080934006C801C7
:102A800067960FB6F894DEBF0FBECDBFDF91CF9132
:102A90001F910F91FF90EF90DF90CF90BF90AF907C
:102AA0009F908F907F906F905F904F903F900C948D
:102AB00031288D859E85AF85B8890097A105B10520
:102AC00021F481E080933F0624C168D8009789F4FF
:102AD00081E090E0A0E0B0E089839A83AB83BC837F
:102AE000AE014F5F5F4F64E070E082E190E068DA32
:102AF00010C1BC01C6017ED319821A821B821C82BE
:102B0000AE014F5F5F4F64E070E082E190E058DA21
:102B10008111FFC0D6CFD6011496ED91FC91159787
:102B20000190F081E02D008511858FEF89830115DB
:102B3000110509F473C0D8016D907C90A280B38018
:102B400020E030E060E070E080E090E086159705DE
:102B50000CF5F801A281B381A20FB31F1296ED917B
:102B6000FC911397EE0FFF1FEA0DFB1D0190F08102
:102B7000E02D16960D90BC91A02DEA9FA001EB9F31
:102B8000500DFA9F500D1124640F751F0196285F98
:102B90003F4FDCCF83E190E00E94500D8111B9C01E
:102BA000C12CD12CE12CF12CE614F70484F5D801CA
:102BB0001296ED91FC911397EC0DFD1D8080918094
:102BC000A281B381AA0FBB1FAA0DBB1D2D913C9101
:102BD00086819781289F2001299F500C389F500C97
:102BE0001124B201C4010E948B0D382E920140E0E5
:102BF00050E06981C4010E94BE248983B8E0CB0EF5
:102C0000D11C311086C0EFEFEE1AFE0ACDCF61E085
:102C100070E0CE0101960E948B0D7BC060E070E0F9
:102C200083E190E00E94500D74C040E050E060E00D
:102C300070E081E190E0C4D981116BC01091D7069A
:102C400060E070E0CB01AFD4112329F0A70160E070
:102C500070E0CB013EDAA70160E070E0CB01A3D3C6
:102C600061E070E080E090E09ED4112331F0A70194
:102C700061E070E080E090E02CDAA70161E070E0B4
:102C800080E090E090D3109241061092400610929E
:102C90004D0610924C0680913D0690913E060E9492
:102CA000480D37C081E090E090939903809398039A
:102CB00040E050E060E070E086E190E018CF81E015
:102CC000D5018C9326C08D859E850E94CE0D0097E0
:102CD00031F42FEF3FEFA90161E070E013C0FC0178
:102CE0002081318142815381CA01B9012C8B3D8BF6
:102CF0004E8B5F8B0E94AA1E2C893D894E895F896D
:102D000060E070E08EE190E08ED903C0C7010E94C0
:102D1000AF0D67960FB6F894DEBF0FBECDBFDF9143
:102D2000CF911F910F91FF90EF90DF90CF90BF90C8
:102D3000AF909F908F907F906F905F904F903F905B
:102D40000895CF92DF92EF92FF92CF93DF93EC0141
:102D5000C12CD12C7601C701B60125D4AE01C70123
:102D6000B601B7D9AE01C701B6011DD380913906AE
:102D700090913A06009731F00E94312810923A065D
:102D800010923906CA94CD28CE28CF2829F0C12C1C
:102D9000D12C7601C394DFCF80914006882359F06F
:102DA00040E050E060E070E084E190E009D9F82E66
:102DB0001092400601C0F12C80914106882341F019
:102DC0001092410681E090E090937302809372022A
:102DD00080913D0690913E060E944B0D80913D06EC
:102DE00090913E060E94400D8F2DDF91CF91FF9074
:102DF000EF90DF90CF900895CF93DF93EC01AC017B
:102E000060E070E0CB010E940023AE0161E070E061
:102E100080E090E0DF91CF910C94002360E070E0BF
:102E2000CB010E946C2361E070E080E090E00C94A4
:102E30006C23CF92DF92EF92FF920F931F93CF9369
:102E4000DF93EC016A017B0100E010E09801D2D72A
:102E500001E010E020E030E0B701A601CE01CAD7C2
:102E6000DF91CF911F910F91FF90EF90DF90CF9066
:102E7000089568EE73E080E090E00E94E50580E050
:102E800090E008950E941E0626E040E050E16EE0CA
:102E900070E083EA93E00E94F70783EA93E00E94E0
:102EA0004107892B29F083EA93E00E945B07F5CF65
:102EB00080E090E00895AF92BF92CF92DF92EF92C0
:102EC000FF920F931F93CF93DF931F921F92CDB763
:102ED000DEB77A018901F9011182108283EA93E059
:102EE00069837A830E94410769817A81892B99F1EC
:102EF0005B01DD24D39485E6C82E80914E068111B6
:102F000024C083EA93E00E945B0785369105A9F708
:102F1000D0924E06F501C1925F01F8018081918146
:102F2000019691838083E9CF83EA93E00E945B0757
:102F30008F3FFFEF9F0749F0F50181935F01F80193
:102F400080819181019691838083F80180819181B4
:102F50008E159F0548F380E090E00F900F90DF9171
:102F6000CF911F910F91FF90EF90DF90CF90BF9086
:102F7000AF9008950F931F93CF93DF93EA018901D8
:102F800083EA93E00E94D60AF801D183C08380E0EF
:102F900090E0DF91CF911F910F910895EF92FF92F2
:102FA0000F931F93CF93DF93DC01EA01F90114968D
:102FB0008D919C91159712960D911C911397080F66
:102FC000191F2881398118964D915C9119974217E4
:102FD000530728F04D915C911197452B39F17801F9
:102FE000E21AF30A18964D915C911997481B590BF8
:102FF0004E0D5F1D4617570794F1A901460F571F45
:1030000040175107E0F0F182E082338322836E198A
:103010007F0975836483161617061CF4382F292F31
:1030200002C030E020E03683278313C018968D91CC
:103030009C911997821B930B8617970784F07183D5
:1030400060833383228315821482178216828881DB
:103050009981680F791F7983688380E001C081E0DE
:10306000DF91CF911F910F91FF90EF900895CF9234
:10307000DF92EF92FF92CF93DF936B017C0184E4A8
:103080008C9DE0018D9DD00D1124C15BD94F8AA983
:103090009BA9009721F00E9431281BAA1AAA84E458
:1030A0008C9DF0018D9DF00D1124E15BF94F86A9F7
:1030B00097A9009711F00E94312884E48C9DF001BB
:1030C0008D9DF00D1124E15BF94F138A128A168A47
:1030D000178A108E118E128E138E148E158E168EE8
:1030E000178E10A211A281E090E093A382A315A2F3
:1030F00014A216A217A210A611A613A612A615A610
:1031000014A616A617A610AA11AA13AA12AA15AADF
:1031100014AA17AA16AA11AE10AE12AE13AE14AEB0
:1031200015AEDF01DE961D921D921D921C92139723
:10313000EE5BFF4F11821082DF91CF91FF90EF90F5
:10314000DF90CF9008950F931F93CF93DF93EB0100
:10315000DC018D919C91FC01A681B781E881F98108
:1031600023E0EE0FFF1F2A95E1F712962D913C9177
:103170001397E20FF31F00811181AC85BD859D017E
:10318000220F331FDC0112968D919C911397D90168
:10319000A80FB91F8D919C9124813581232B19F49F
:1031A00061E070E002C062E070E0689F9001699F9A
:1031B000300D789F300D112488859985289FB001A6
:1031C000299F700D389F700D1124EC81FD812E9F79
:1031D000C0012F9F900D3E9F900D1124800F911FD5
:1031E000FA019183808373836283DF91CF911F9172
:1031F0000F9108952F923F924F925F926F927F921C
:103200008F929F92AF92BF92CF92DF92EF92FF92F6
:103210000F931F93CF93DF9300D000D0CDB7DEB7CD
:10322000DC011496ED91FC9115970190F081E02D51
:10323000808591859A838983A281B381BC83AB8386
:10324000FB0181909190A190B1908F01C12CD12C64
:103250007601C814D904EA04FB040CF05FC0D8015D
:1032600014964D905D906D907C90179718964D91A7
:103270005D916D917C911B97F8017096FE83ED83B3
:10328000F801A081B18183E0AA0FBB1F8A95E1F705
:10329000E981FA8182819381A80FB91F2D903C901A
:1032A0001197F80124853585220F331F8B819C816E
:1032B000280F391FF9010081118114968D919C917D
:1032C0001597892B19F481E090E002C082E090E02C
:1032D000809F9001819F300D909F300D1124249F7D
:1032E0008001259F100D349F100D1124249DC001D5
:1032F000259D900D349D900D1124A8016D817E8136
:10330000820D931D0E94C9288D819E81080F191F6F
:103310009FEFC91AD90AE90AF90A9BCF26960FB678
:10332000F894DEBF0FBECDBFDF91CF911F910F91FB
:10333000FF90EF90DF90CF90BF90AF909F908F90D5
:103340007F906F905F904F903F902F900895CF9314
:10335000DF93DB01AB57BD4F2C91222369F024E4AE
:10336000269FF001279FF00D1124E15BF94FEF013B
:1033700019922A95E9F71C9224E4269FF001279FD1
:10338000F00D1124E15BF94F148215821682178229
:103390001186108613861286118A108A1786168661
:1033A000DF91CF9164CE2F923F924F925F926F92B6
:1033B0007F928F929F92AF92BF92CF92DF92EF92C5
:1033C000FF920F931F93CF93DF93CDB7DEB728976C
:1033D0000FB6F894DEBF0FBECDBF6B017C011A01A2
:1033E00084E48C9D90018D9D300D1124215B394F1B
:1033F000F90184819581A681B781892B8A2B8B2B3A
:1034000009F4B8C0A12CB12C412C512C32013887C1
:103410002F83C90104969A838983D9011896BC83A6
:10342000AB83E981FA8180819181A281B3814816C1
:1034300059066A067B0694F5AB81BC81ED91FC913F
:10344000EA0DFB1D228133818901812C912C82148C
:103450009304C4F4D801ED91FC91309769F0848114
:1034600095812D833E830E943128F80180819181CE
:103470000E9431283E812D81FFEF8F1A9F0A0E5F37
:103480001F4FE5CFC9010E9431288FEF481A580A13
:10349000680A780A94E0A90EB11CC3CFAF81B88541
:1034A00018968D919C9119970E943128EF81F8858B
:1034B00082859385892B59F1A12CB12C812C912CDB
:1034C00084E48C9D80018D9D100D1124075A194FA5
:1034D0008214930484F4D801ED91FC91EA0DFB1D54
:1034E000848195810E943128BFEF8B1A9B0AEEE000
:1034F000AE0EB11CEDCF84E48C9DF0018D9DF00DDE
:103500001124E15BF94F828593850E94312884E480
:103510008C9D90018D9D300D11248901015B194F07
:10352000D80150968D919C9151970E943128F801B5
:10353000868597850E943128C701B60198DDC701AD
:10354000B60128960FB6F894DEBF0FBECDBFDF914F
:10355000CF911F910F91FF90EF90DF90CF90BF9090
:10356000AF909F908F907F906F905F904F903F9023
:103570002F90EDCE28960FB6F894DEBF0FBECDBFCC
:10358000DF91CF911F910F91FF90EF90DF90CF903F
:10359000BF90AF909F908F907F906F905F904F9073
:1035A0003F902F90089524E4269FF001279FF00D6F
:1035B0001124E15BF94F828993890497029758F4AB
:1035C00085E090E0938B828B8FEF9FEFDC01828F01
:1035D000938FA48FB58F08952F923F924F925F9251
:1035E0006F927F928F929F92AF92BF92CF92DF9213
:1035F000EF92FF920F931F93CF93DF93CDB7DEB778
:10360000E0970FB6F894DEBF0FBECDBF9AA389A393
:103610001B016A012801390184E4849D8001859D94
:10362000100D11249801215B394F7901D9014D9278
:103630005D926D927C921397AB01C301B201B3DE30
:10364000F801ED5AF94FD6014D915D916D917D9143
:103650008D01CA01408351836283738364E070E00B
:103660000E948227F70191878087892B09F499C1ED
:103670001E8E1D8E198E1A8E1B8E1C8EF8A2EF8E3A
:1036800097012C5F3F4F38A72FA32C5F3F4F3AA7DE
:1036900029A7EFA1F8A580819181A281B381298D0D
:1036A0003A8D4B8D5C8D281739074A075B070CF064
:1036B000E4C0A9A5BAA58D919C912D8D3E8D280FB2
:1036C000391F3A8B298BD801ED91FC91EE0FFF1F2A
:1036D000A9A1BAA18D919C91E80FF91F80819181D8
:1036E000F90191838083D80114962D913D914D91DC
:1036F0005C9117972BA33CA34DA35EA3085F1F4FBC
:1037000062E070E0C1010E948227E989FA8993830F
:103710008283892B09F445C11D8A1E8A1F8A188E4F
:103720002D893E894F89588D8BA19CA1ADA1BEA149
:10373000281739074A075B070CF08CC0D801ED90B9
:10374000FC90EE0CFF1CE989FA89C280D380CE0C74
:10375000DF1C68E070E081E090E00E948227D601E3
:103760008D939C93E989FA8982819381FC01EE0D06
:10377000FF1DC080D180C114D10409F412C1D80149
:1037800014964D915D916D917C911797CA01F60148
:103790004083518362837383085F1F4F64E070E04E
:1037A0000E948227D60115969C938E931497892B9D
:1037B00009F4F7C01C8A1B8A812C912C5401F60154
:1037C00080819181A281B38188169906AA06BB06E1
:1037D000A4F5F601E480F5802B893C89E20EF31E06
:1037E000F801DE01119680E101900D928A95E1F7D2
:1037F000005F1F4FA701BE016F5F7F4FA9A1BAA154
:1038000014968D919C9115979EDCF6012681378147
:10381000D70112968D919C911397820F931F9783D6
:103820008683BFEF8B1A9B0AAB0ABB0A2B893C89A4
:103830002C5F3F4F3C8B2B8BC2CF2D893E894F890C
:10384000588D2F5F3F4F4F4F5F4F2D8B3E8B4F8BD0
:10385000588F66CF298D3A8D4B8D5C8D2F5F3F4FF2
:103860004F4F5F4F298F3A8F4B8F5C8F2D8D3E8D41
:103870002C5F3F4F3E8F2D8F0CCF6EE070E0C1016B
:103880000E948227AF8DB8A11B969C938E931A97A6
:10389000812C912CA12CB12CC12CD12C24E4249D61
:1038A000C001259D900D11249C01275A394F3A8B58
:1038B000298B21E030E0A214B3040CF04AC0D801F7
:1038C0004D915D916D917D918D01CA01E989FA89D2
:1038D000E080F180E80CF91C57FD63C0D701119618
:1038E0003C932E930097A1F02FA738AB4BA75CA772
:1038F0006DA77EA70E949C27F701958384832FA53F
:1039000038A94BA55CA56DA57EA5892B31F449C0CE
:10391000D70115961C921E921497F7015383428388
:103920008481958197838683918780871386128609
:1039300081E090E0452B462B472B11F480E090E08E
:10394000C80ED91EFFEFAF1ABF0A4EE0840E911CBD
:10395000B2CF84E4849D8001859D100D1124015B0C
:10396000194FD8011D961C921E921C97C60133E078
:10397000880F991F3A95E1F70E949C27F801918BD7
:10398000808B892B71F0C601880F991F0E949C279C
:10399000D8011F969C938E931E97892B11F080E07F
:1039A00005C0A101C301B201FEDC81E0E0960FB6C3
:1039B000F894DEBF0FBECDBFDF91CF911F910F9165
:1039C000FF90EF90DF90CF90BF90AF909F908F903F
:1039D0007F906F905F904F903F902F9008952F921F
:1039E0003F924F925F926F927F928F929F92AF928F
:1039F000BF92CF92DF92EF92FF920F931F93CF93DC
:103A0000DF93CDB7DEB768970FB6F894DEBF0FBE71
:103A1000CDBF9C8B8B8BDB0149015A0124E4289D8F
:103A2000C001299D900D11249C01215B394F790122
:103A30002D913C911197F701358B248BFC01EB59AB
:103A4000F94F14964D915D916D917C91179740833C
:103A5000518362837383FC01E759F94F18964D91A6
:103A60005D916D917C911B97408351836283738339
:103A7000FC01E359F94F1C964D915D916D917C913C
:103A80001F974083518362837383FC01E358F94F8E
:103A900050965C91509751964C91519752963C910B
:103AA000529753962C9153975083418332832383AB
:103AB0008D010C5E1F4F852F942F181619060CF0E0
:103AC00068C0880F991F880F991F0E949C27D701F3
:103AD000D3969C938E93D297892B09F4BCC0212C4A
:103AE000312C412C512C32019701225D3F4F3E8BEE
:103AF0002D8B2C5F3F4F388F2F8B2E5F3F4F3A8B94
:103B0000298BB301A2012FEF421A520A620A720AEC
:103B1000ED89FE8980819181A281B381481759077F
:103B20006A077B074CF5AF89B88DCD90DC90C20C4D
:103B3000D31CF801DE01119680E101900D928A9567
:103B4000E1F7005F1F4FA601BE016F5F7F4FEB895A
:103B5000FC8984819581F7DAA989BA898D919C9134
:103B60001197F60122813381820F931F8D939C93CD
:103B7000F4E02F0E311CC5CFD701D4968D919C91C6
:103B8000D5970E949C27F70197AB86AB892B09F448
:103B900062C0F80180819181A281B38124E4289DD3
:103BA000F001299DF00D1124E15BF94FAC01BD013D
:103BB0004D7F21E030E0452B462B472B11F020E0D4
:103BC00030E033A322A324E4289DF001299DF00DC9
:103BD0001124E15BF94F0197A109B10921E030E01F
:103BE0000297A105B10510F020E030E035A324A331
:103BF00084E4889DF001899DF00D1124CF018B583C
:103C0000994FD80114964D915D916D917C911797C4
:103C1000DC014D935D936D937C931397E15BF94FBA
:103C2000868D978DA0A1B1A1B7FF10C0B095A095CA
:103C3000909581959F4FAF4FBF4F82AF93AFA4AF89
:103C4000B5AF168E178E10A211A20AC012AE13AE17
:103C500014AE15AE05C0C501B40109DA81E001C09A
:103C600080E068960FB6F894DEBF0FBECDBFDF913F
:103C7000CF911F910F91FF90EF90DF90CF90BF9069
:103C8000AF909F908F907F906F905F904F903F90FC
:103C90002F900895CF92DF92EF92FF92CF93DF9310
:103CA0001092D70624E4269FF001279FF00D1124DF
:103CB000E15BF94F15A614A620E030E0C12CD12C11
:103CC000DF011A96C1E0D0E0C416D506D4F4ED9118
:103CD000FC911197E20FF31FE280F3801E141F0482
:103CE00054F4E480F580F782E682F186E08613865C
:103CF0001286D183C083EFEFCE1ADE0A225F3F4FD8
:103D0000E3CF24E4269FF001279FF00D1124E15B0F
:103D1000F94F13A612A611AE10AEDF01DE961D926A
:103D20001D921D921C92139782E090E0938B828BE0
:103D3000DF91CF91FF90EF90DF90CF90089524E432
:103D4000269FF001279FF00D1124E15BF94F138AA4
:103D5000128A29CB24E4269FF001279FF00D11241D
:103D6000E15BF94F8289938981309105C8F08530F4
:103D7000910518F0059769F008958FEF9FEFDC012A
:103D8000828F938FA48FB58F85E090E0938B828B89
:103D900008958FEF9FEFDC01828F938FA48FB58FF3
:103DA000089524E4249FF001259FF00D1124E15B88
:103DB000F94F2EE0AC01249FC001259F900D1124E6
:103DC0000284F385E02DE80FF91F81E08093D70688
:103DD00082859385918780874085518526813781AB
:103DE00081E090E04217530711F080E090E091836A
:103DF000808308952F923F924F925F926F927F92AD
:103E00008F929F92AF92BF92CF92DF92EF92FF92EA
:103E10000F931F93CF93DF93CDB7DEB7C255D10970
:103E20000FB6F894DEBF0FBECDBF21969FAF8EAF09
:103E300021974BA75CA76DA77EA74801590184E491
:103E4000889D8001899D100D1124F801E15BF94FD7
:103E50002285338527963FAF2EAF27978289938996
:103E6000029709F058C186A597A5A0A9B1A9892BE9
:103E70008A2B8B2B29F484E090E0938B828B4BC1AF
:103E80008489958921964EAD5FAD219748175907D2
:103E900009F041C186A997A99AAB89AB1EAE1DAEA8
:103EA00019AE1AAE1BAE1CAE8F01DF019E9629968D
:103EB000BFAFAEAF2997F2962B96FFAFEEAF2B9721
:103EC0009801285C3F4F2D963FAF2EAF2D97A8014C
:103ED0004A5D5F4F2F965FAF4EAF2F97C801829616
:103EE00061969FAF8EAF61971A976396BFAFAEAFE3
:103EF00063972996EEADFFAD299780819181A281CC
:103F0000B38129AD3AAD4BAD5CAD281739074A07EF
:103F10005B070CF0DFC02B96EEADFFAD2B978081D9
:103F200091812DAD3EAD280F391F3EAB2DABD90190
:103F300012960D90BC91A02D2396BFAFAEAF2397E4
:103F4000B695A795B695A7952596BFAFAEAF259721
:103F50002D96EEADFFAD2D9780819181892B09F4CF
:103F60008EC02F96AEADBFAD2F97CD90DD90ED906A
:103F7000FC9029A83AA8F9010190F081E02DF8AB56
:103F8000EFA718AE1FAA8FA998AD2596AEADBFAD0D
:103F900025978A179B070CF072C06196AEADBFAD36
:103FA00061978D919C91892B49F1EFA5F8A94080EB
:103FB000518062807380A7019601C301B201EAD6E5
:103FC00087FD0AC0A7019601D1016D917D918D9168
:103FD0009C91FED587FD86C0A7019601C301B20161
:103FE000D9D618165CF4A7019601F10160817181A0
:103FF00082819381EDD5882309F474C06396AEADB8
:10400000BFAD63978D919C91892B49F1EFA5F8A9DC
:104010004080518062807380A7019601C301B20184
:10402000D7D587FF0AC0A7019601D1016D917D9177
:104030008D919C91AFD687FF55C0A7019601C30112
:10404000B201C6D581110BC0A7019601F1016081B3
:104050007181828193819ED618160CF443C02FA9DA
:1040600038AD2F5F3F4F38AF2FAB34E0230E311CFC
:104070004FA558A94C5F5F4F58AB4FA784CFEDA910
:10408000FEA96081718123964EAD5FAD239789A90A
:104090009AA90E94C92825968EAD9FAD2597880FB5
:1040A000991F880F991F29A93AA9280F391F3AABE0
:1040B00029AB89AD9AADABADBCAD0196A11DB11DCB
:1040C00089AF9AAFABAFBCAFADADBEAD1496BEAFCE
:1040D000ADAF0FCF81E090E0D801D9969C938E933D
:1040E000D89719C084E4889DF001899DF00D1124B2
:1040F000E15BF94F868D978DA0A1B1A1892B8A2B09
:104100008B2B09F05CC284E090E0938B828B86ADB0
:1041100097AD93A782A784E4889DF001899DF00D57
:104120001124E15BF94F828993898230910571F402
:1041300082AD93ADA4ADB5AD181619061A061B06CF
:104140000CF044C2CC24C394D12C05C0049709F0D0
:104150003DC2C12CD12C8EE02196EEADFFAD219752
:104160008E9F70018F9FF00C112427962EAD3FADCE
:104170002797E20EF31ED70112964D915C9113978B
:104180004115510509F422C216968D919C911797FD
:104190009AA789A7FE01319684E1DF011D928A95D5
:1041A000E9F7898A9A8AAB8ABC8AC114D10409F4D6
:1041B00057C084E4889DF001899DF00D1124E15BD6
:1041C000F94FDF01DE964D905D906D907C9082AD51
:1041D00093ADA4ADB5AD481659066A067B0609F045
:1041E0003FC0F701648175810084F185E02D8481F1
:1041F0009581A681B7819C018D8B9E8BAF8BB88FEB
:10420000285F3F4F3E8B2D8BD70118968D919C9147
:104210001997280F391F19963C932E9318971896C3
:104220008D919C911997460F571F841B950B97FDF5
:1042300006C0860F971F19969C938E93189784E457
:10424000889DF001899DF00D1124E357F94FB1E0ED
:104250004B1A510861087108408251826282738250
:104260009E012B5E3F4FAE01475D5F4F64E170E002
:10427000C7010E94CE17082F10E00115110509F0A3
:1042800089C18CE090E0A0E0B0E08D839E83AF8395
:10429000B8879E01235E3F4FAE01475D5F4F64E0EC
:1042A00070E0C7010E94CE17082F10E0011511051C
:1042B00009F070C180E190E0A0E0B0E08D839E83C2
:1042C000AF83B8874D8D5E8DBE01655D7F4F8F8D4D
:1042D00098A15FD78BA19CA1009759F06D8D7E8D21
:1042E000EBE2F0E0EC0FFD1F6E0F7F1F49A15AA11A
:1042F00050D71DA21EA21FA218A621962EAD3FAD1B
:104300002197220F331F38AF2FAB24E4289DC00123
:10431000299D900D1124815B994FAC014C5F5F4F3B
:104320005AAF49AFDC011896BEAFADAF2DA13EA18B
:104330004FA158A529AB3AAB4BAB5CABE9ADFAAD9D
:1043400080819181A281B381281739074A075B07D1
:104350000CF0CBC0ADADBEADED91FC9189A99AA991
:10436000880F991F880F991FE80FF91FA081B1814D
:104370008C91882309F4ABC0833009F4A8C0028073
:10438000F381E02D2FA938ADE20FF31F4081518159
:1043900058AB4FA7452B09F49AC089859A85AB8500
:1043A000BC850196A11DB11D89879A87AB87BC8703
:1043B0009E01235E3F4FAE01475D5F4F64E070E0BA
:1043C000C7010E94CE1790E0009709F0E2C08D81EE
:1043D0009E81AF81B8850496A11DB11D8D839E83FA
:1043E000AF83B8874D8D5E8DBE016B5D7F4F8F8D26
:1043F00098A1CFD68BA19CA1009759F06D8D7E8D91
:10440000A5E2B0E0AC0FBD1F6A0F7B1F49A15AA106
:10441000C0D61EAA1DAA412C512C3201EFA5F8A925
:1044200080819181A281B381481659066A067B0674
:104430000CF04DC0EFA5F8A9248035802DA93EA928
:10444000220E331ED10112966D917C9113979E011D
:10445000235E3F4FAE01475D5F4FC7010E94CE17FD
:1044600090E0009709F095C0F10182819381092EB7
:10447000000CAA0BBB0B4D815E816F817885840F88
:10448000951FA61FB71F8D839E83AF83B88760815A
:1044900071814D8D5E8D8F8D98A17BD68BA19CA156
:1044A000009751F0D1016D917C912D8D3E8D620F61
:1044B000731F49A15AA16DD6BFEF4B1A5B0A6B0A55
:1044C0007B0AEDA9FEA93496FEABEDABA7CF49A8B8
:1044D0005AA86BA87CA8FFEF4F1A5F0A6F0A7F0AE1
:1044E0004DA25EA26FA278A621CF89859A85AB8561
:1044F000BC85892B8A2B8B2B09F44CC08AE190E078
:10450000A0E0B0E089839A83AB83BC8321962EAD73
:104510003FAD2197C901330FAA0BBB0B8D879E8737
:10452000AF87B88B4D895E89BE016F5F7F4F8F89E2
:10453000988D2FD68B8D9C8D009759F06D897E8933
:1045400041E050E04C0F5D1F640F751F498D5A8D7F
:1045500020D689A59AA5D70117969C938E93169776
:1045600011961C921E92CD2889F184E4889DF00159
:10457000899DF00D1124E357F94F80819181A2812B
:10458000B3810196A11DB11D80839183A283B38362
:104590001DC08C01CD28D1F4012BC1F084E4889D8D
:1045A000F001899DF00D1124E15BF94F81E090E06D
:1045B00095A784A785E090E0938B828B07C083E06A
:1045C00090E0938B828B81E090E0A3CDCE5ADF4FB9
:1045D0000FB6F894DEBF0FBECDBFDF91CF911F9114
:1045E0000F91FF90EF90DF90CF90BF90AF909F9092
:1045F0008F907F906F905F904F903F902F90089595
:10460000CF92DF92EF92FF920F931F936B017C0189
:1046100084E48C9DF0018D9DF00D1124E15BF94F38
:1046200082899389009709F450C00197B9F482A553
:1046300093A59C012F5F3F4F33A722A7092E000CA3
:10464000AA0BBB0B028D138D248D358D801791071E
:10465000A207B307D1F5C701B6011CDB84E48C9D2A
:10466000F0018D9DF00D1124E15BF94F8289938952
:10467000039759F582A593A59C012F5F3F4F33A760
:1046800022A7092E000CAA0BBB0B468D578D60A1EB
:1046900071A184179507A607B707BCF086AD97AD43
:1046A00093A782A784E090E0938B828B82AD93AD39
:1046B000A4ADB5AD181619061A061B0634F4EE5B48
:1046C000FF4F81E090E0918380831F910F91FF90D5
:1046D000EF90DF90CF90089524E4269FF001279F6C
:1046E000F00D1124E15BF94F828993890497B1F4AD
:1046F00082A593A5019693A782A7092E000CAA0B69
:10470000BB0B46895789608D718D84179507A60765
:10471000B70721F485E090E0938B828B08952F9268
:104720003F924F925F926F927F928F929F92AF9241
:10473000BF92CF92DF92EF92FF920F931F93CF938E
:10474000DF93CDB7DEB72E970FB6F894DEBF0FBE5E
:10475000CDBF49835A836B837C834901442E552EF8
:1047600024E4249DF001259DF00D1124E15BF94F17
:10477000228833889101245031091586148622300D
:10478000310508F0DDC0DC0111961C921E921396D3
:104790001C921E921297A12CB12C60E070E09F0138
:1047A000265F3F4F38872F837F013CE0E30EF11CEB
:1047B000DF015096BA87A9879F01225F3F4F3C8750
:1047C0002B87681579050CF06FC0EF81F885A08103
:1047D000B1819D012A0D3B1D3E872D87D9012D9169
:1047E0003C911197232B09F059C018960D911C91FB
:1047F00019971296ED91FC911397FE83ED8316960F
:104800002D913C911797D7014D915C91DA01E3E02E
:10481000AA0FBB1FEA95E1F7E985FA85C080D18030
:10482000FD01EC0DFD1D440F551FAB85BC85CD90E2
:10483000DC904C0D5D1DDA016D937C93D7014D9199
:104840005C9111974F5F5F4F4D935C93138302838D
:10485000AD85BE851B963C932E931A9702171307BE
:1048600048F4201B310B3183208315821482178278
:10487000168214C0AD85BE851496CD90DC90159738
:104880004D815E814C0D5D1D401B510B518340835A
:104890002C193D0935832483D782C6826F5F7F4FF1
:1048A000BEE0AB0EB11C8DCF24E4249D8001259D7C
:1048B000100D1124015B194FF80124853585DC01A9
:1048C00011963C932E934089518913965C934E9395
:1048D00012974685578515965C934E931497232B14
:1048E000A1F5B5E02B16310481F51092D706828D23
:1048F000938DA48DB58DAE014F5F5F4F64E070E086
:104900008F3F9F4FAF4FBF4F59F480E290E00E941E
:10491000E00F69817A818B819C81A40110DA15C036
:104920008FE190E00E94E00FD8019B961C921E92AE
:104930009A9781E090E053969C938E93529705C08E
:10494000FC0111821082138212822E960FB6F89407
:10495000DEBF0FBECDBFDF91CF911F910F91FF90B2
:10496000EF90DF90CF90BF90AF909F908F907F900F
:104970006F905F904F903F902F900895DC01A40FAF
:10498000B51F240F351FAD01481B590B42175307A4
:1049900038F4ED91E627F0E0E15DFD4F6491F3CF4F
:1049A000862F08959A01AB016FEFE8CFCF93FC01FA
:1049B000E60FF71FE40FF51FC081F4DF91E0C81385
:1049C00090E0892FCF9108958091D80691E0980FBB
:1049D0009093D806882349F021E030E03093DA063E
:1049E0002093D9068093D806089578940E94DB011D
:1049F000F8948091D80681508093D8060C94C8030F
:104A0000FF920F931F93CF93DF931F921F92CDB707
:104A1000DEB7FF24F394FA820E941E060E94240C43
:104A20000091130310911403F8011182108260E0C9
:104A300070E080E090E00E94D1030E94C60278946A
:104A4000C80186960E94D00381E090E00E94CC03CA
:104A50001982AE014F5F5F4F61E070E0F801828123
:104A600093810E9476038981882311F0F801F2A6D0
:104A70000E94D703F8940E94760CF80180819181FE
:104A8000892B19F481E092A5911180E08A837894B2
:104A90007894FF24F3948A81882321F11982AE014E
:104AA0004F5F5F4F61E070E0F801828193810E9467
:104AB000B2038981882311F0F801F2A6F801808100
:104AC0009181892B19F481E092A5911180E08A836C
:104AD0008A81882319F00E94950C02C080E090E042
:104AE0008A83D9CF81E090E00E94CE030E945D03CB
:104AF000F89480E090E00F900F90DF91CF911F919C
:104B00000F91FF9008955058BB27AA270ED008C1D7
:104B1000F9D030F0FED020F031F49F3F11F41EF4B4
:104B2000EEC00EF4E095E7FBE4C0E92F0AD180F374
:104B3000BA17620773078407950718F071F49EF59A
:104B400022C10EF4E0950B2EBA2FA02D0B01B90156
:104B500090010C01CA01A0011124FF27591B99F0F3
:104B6000593F50F4503E68F11A16F040A22F232FFF
:104B7000342F4427585FF3CF469537952795A7954F
:104B8000F0405395C9F77EF41F16BA0B620B730BF6
:104B9000840BBAF09150A1F0FF0FBB1F661F771F67
:104BA000881FC2F70EC0BA0F621F731F841F48F41C
:104BB000879577956795B795F7959E3F08F0B3CFA2
:104BC0009395880F08F09927EE0F9795879508958C
:104BD0006CD008F481E00895BCD088F09F5790F025
:104BE000B92F9927B751A0F0D1F0660F771F881F12
:104BF000991F1AF0BA95C9F712C0B13081F0C3D02D
:104C0000B1E00895C0C0672F782F8827B85F39F0CA
:104C1000B93FCCF3869577956795B395D9F73EF470
:104C200090958095709561957F4F8F4F9F4F089518
:104C3000E89409C097FB3EF4909580957095619536
:104C40007F4F8F4F9F4F9923A9F0F92F96E9BB27EC
:104C50009395F695879577956795B795F111F8CF68
:104C6000FAF4BB0F11F460FF1BC06F5F7F4F8F4FD3
:104C70009F4F16C0882311F096E911C0772321F0C9
:104C80009EE8872F762F05C0662371F096E8862F61
:104C900070E060E02AF09A95660F771F881FDAF7B8
:104CA000880F9695879597F90895990F0008550FE5
:104CB000AA0BE0E8FEEF16161706E807F907C0F0A2
:104CC00012161306E407F50798F0621B730B840BAA
:104CD000950B39F40A2661F0232B242B252B21F484
:104CE00008950A2609F4A140A6958FEF811D811D24
:104CF000089597F99F6780E870E060E008959FEF5E
:104D000080EC089500240A94161617061806090662
:104D1000089500240A941216130614060506089531
:104D2000092E0394000C11F4882352F0BB0F40F4B9
:104D3000BF2B11F460FF04C06F5F7F4F8F4F9F4FF9
:104D4000089557FD9058440F551F59F05F3F71F07B
:104D50004795880F97FB991F61F09F3F79F08795E2
:104D60000895121613061406551FF2CF4695F1DF6B
:104D700008C0161617061806991FF1CF86957105FB
:104D8000610508940895E894BB2766277727CB012F
:104D900097F908958ADF08F48FEF08950BD0C0CFFC
:104DA000B1DF28F0B6DF18F0952309F0A2CFA7CF26
:104DB0001124EACFC6DFA0F3959FD1F3950F50E001
:104DC000551F629FF001729FBB27F00DB11D639FBD
:104DD000AA27F00DB11DAA1F649F6627B00DA11D63
:104DE000661F829F2227B00DA11D621F739FB00D09
:104DF000A11D621F839FA00D611D221F749F332779
:104E0000A00D611D231F849F600D211D822F762F11
:104E10006A2F11249F5750408AF0E1F088234AF00E
:104E2000EE0FFF1FBB1F661F771F881F915050405A
:104E3000A9F79E3F510570F05CCFA6CF5F3FECF322
:104E4000983EDCF3869577956795B795F795E79546
:104E50009F5FC1F7FE2B880F911D9695879597F957
:104E6000089597FB072E16F4009406D077FD08D01E
:104E700035D007FC05D03EF4909581959F4F08955D
:104E8000709561957F4F0895A1E21A2EAA1BBB1B56
:104E9000FD010DC0AA1FBB1FEE1FFF1FA217B30706
:104EA000E407F50720F0A21BB30BE40BF50B661F1C
:104EB000771F881F991F1A9469F7609570958095E0
:104EC00090959B01AC01BD01CF010895EE0FFF1F2E
:104ED000881F8BBF0790F691E02D1994AA1BBB1B6E
:104EE00051E107C0AA1FBB1FA617B70710F0A61BEA
:104EF000B70B881F991F5A95A9F780959095BC010B
:104F0000CD0108950F931F93CF93DF93869F800168
:104F1000879F100D969F100D1124C8010DD0EC0134
:104F2000009721F0A80160E070E03CD1CE01DF9154
:104F3000CF911F910F910895CF93DF938230910508
:104F400010F482E090E0E0910F07F091100720E06C
:104F500030E0C0E0D0E0309711F140815181481736
:104F60005907C0F04817590761F48281938120974F
:104F700019F09B838A832BC09093100780930F07AF
:104F800026C02115310519F04217530718F49A016C
:104F9000BE01DF01EF010280F381E02DDCCF21159E
:104FA000310509F1281B390B2430310590F4129694
:104FB0008D919C9113976115710521F0FB019383ED
:104FC000828304C09093100780930F07FD013296EF
:104FD00044C0FD01E20FF31F8193919322503109E8
:104FE0002D933C933AC020910D0730910E07232B4F
:104FF00041F4209102023091030230930E07209376
:105000000D0720910002309101022115310541F474
:105010002DB73EB74091040250910502241B350B79
:10502000E0910D07F0910E07E217F307A0F42E1B95
:105030003F0B2817390778F0AC014E5F5F4F2417FC
:10504000350748F04E0F5F1F50930E0740930D0732
:105050008193919302C0E0E0F0E0CF01DF91CF9126
:1050600008950F931F93CF93DF93009709F48CC09B
:10507000FC0132971382128200910F0710911007E2
:105080000115110581F420813181820F931F209138
:105090000D0730910E072817390779F5F0930E07A1
:1050A000E0930D0771C0D80140E050E0AE17BF0794
:1050B00050F412962D913C911397AD0121153105B5
:1050C00009F1D901F3CF9D01DA0133832283608195
:1050D0007181860F971F8217930769F4EC0128816D
:1050E0003981260F371F2E5F3F4F318320838A81FE
:1050F0009B8193838283452B29F4F0931007E093DF
:105100000F0742C01396FC93EE931297ED0149915D
:1051100059919E01240F351FE217F30771F4808126
:105120009181840F951F029611969C938E93828194
:10513000938113969C938E931297E0E0F0E0D80150
:1051400012968D919C911397009719F0F8018C019C
:10515000F6CF8D919C9198012E5F3F4F820F931F48
:1051600020910D0730910E072817390769F4309701
:1051700029F41092100710920F0702C013821282B6
:1051800010930E0700930D07DF91CF911F910F91A0
:105190000895FB01DC0102C001900D924150504086
:1051A000D8F70895DC0101C06D9341505040E0F7FD
:1051B0000895FB01DC018D91019080190110D9F354
:0851C000990B0895F894FFCF4C
:1051C8000000110780000100000001000E026E02BD
:1051D80000000000010003001A02DB060B000000BB
:1051E8000100DD060E0000000100E10608000000D5
:1051F80001009B02A202AC02AB02B402B302BD02E0
:10520800BC02C502CF02DA02E002EA02F302070397
:105218000400040001000100020002000400040070
:10522800010004000200020004000800040000005D
:10523800803F01001D041D041D041D041D041D04E0
:105248001D041D04FF010153696D756C6174696F5C
:105258006E2066696E6973686564007265616C5F6B
:1052680054007265616C33325F540075696E74382E
:105278005F540075696E7431365F540075696E74D9
:1052880033325F5400626F6F6C65616E5F54006605
:10529800636E5F63616C6C5F5400696E745F540089
:1052A800706F696E7465725F5400616374696F6EC4
:1052B8005F540074696D65725F75696E7433325F2F
:1052C800706169725F54006273317864343372714B
:1052D800680001E20600000000B107D60A41075B3A
:1052E800074D079007000000008C0A2D77002D69F4
:1052F800676E6F72652D61726700436F756C64200D
:105308006E6F742063726561746520657874657268
:105318006E616C206D6F64652075736572206461C1
:1053280074612E20204F7574206F66206D656D6F37
:0653380072792E0A00004C
:00000001FF
